:100000000C9435030C947C030C947C030C947C03BB
:100010000C947C030C947C030C947C030C947C0364
:100020000C947C030C947C030C94ED270C94BF2857
:100030000C9436200C947C030C947C030C947C036D
:100040000C947C030C947C030C947C030C947C0334
:100050000C947C030C9483200C947C030C947C0300
:100060000C947C030C947C030C947C030C947C0314
:100070000C947C030C947C030C947C030C947C0304
:100080000C947C030C947C030C947C030C947C03F4
:100090000C947C030C947C030C947C030C947C03E4
:1000A0000C947C030C947C030C947C039C0E9F0E9C
:1000B000A70EAC0EB10EB60EBB0EC00EC50ECA0E0C
:1000C000CF0ED40ED60ED90EDC0EDF0EE20EE50EEC
:1000D000E70EEC0E97159715C915C91516163416A7
:1000E000551755173F16D416E516E516451755173B
:1000F00055174E17F517F51707180718FE170718A5
:1001000007180718F517F517031807180718031825
:100110002C2953294B2A53294B2A9F29C2294B2A80
:10012000192A282A165C1E001F0020002100220028
:10013000230024002500260027002D002E000000AB
:100140002A002B0014001A000800150017001C00DC
:1001500018000C00120013002F00300031000000C6
:10016000390004001600070009000A000B000D000A
:100170000E000F0033003400000028000000E100F2
:1001800000001D001B0006001900050011001000F2
:100190003600370038000000E5000000E000E30012
:1001A000E20000000000000000002C0000000051F0
:1001B000115000001250E400000035003A003B00EE
:1001C0003C003D003E003F00400041004200430033
:1001D0004400450000002A002B00000052000000EF
:1001E000C45CCA5CCC5CC65C000000000000AC00D3
:1001F000AB00AE000000C35C500051004F00C55C76
:10020000CB5CCD5CC75C00000000AA00A900000028
:1002100028000000C05C0000CE5CCF5CD05CD15CEC
:10022000D25CD35CD45CD55CD65C00000000E500F9
:100230000000E000E300E200000000000000000019
:100240002C00000010500100000000000000000021
:10025000005C000000000000000000000000000042
:10026000000000000000000000000000000000008E
:10027000000000000000000000000000000000007E
:10028000000000000000000000000000000000006E
:10029000000000000000000000000000000000005E
:1002A000000000000000000000000000000000004E
:1002B000000000000000000000000000000000003E
:1002C000000000000000000000000000000000002E
:1002D00000000000000000000000105000000000BE
:1002E00001000000000032190A00047F3F1F643241
:1002F00014643214783C1E1E140A05222325262875
:10030000292A2C2D2F3032333536383A3B3D3E40AA
:1003100042434547494A4C4E5051535557595A5CF0
:100320005E6062646668696B6D6F71737577797B07
:100330007D7F81838587898A8C8E90929496989A06
:100340009C9E9FA1A3A5A7A8AAACAEAFB1B3B4B61B
:10035000B8B9BBBCBEBFC1C2C3C5C6C7C9CACBCC76
:10036000CDCED0D1D2D2D3D4D5D6D7D7D8D9D9DA49
:10037000DADBDBDBDCDCDCDCDCDDDDDDDDDCDCDCBE
:10038000DCDCDBDBDBDADAD9D9D8D7D7D6D5D4D3E6
:10039000D2D2D1D0CECDCCCBCAC9C7C6C5C3C2C1BB
:1003A000BFBEBCBBB9B8B6B4B3B1AFAEACAAA8A718
:1003B000A5A3A19F9E9C9A98969492908E8C8A89D0
:1003C000878583817F7D7B79777573716F6D6B69AD
:1003D00068666462605E5C5A5957555351504E4C82
:1003E0004A4947454342403E3D3B3A383635333231
:1003F000302F2D2C2A292826252322FFAA7F55407D
:1004000000010101010101010101020202020202D7
:1004100002020203030303030303030404040404AA
:100420000404050505050506060606060707070771
:100430000708080808090909090A0A0A0B0B0B0C26
:100440000C0C0D0D0D0E0E0E0F0F0F1010111111C3
:100450001212131314141515161617171818191944
:100460001A1A1B1B1C1D1D1E1E1F202021222223A9
:100470002424252626272829292A2B2C2D2D2E2FEA
:1004800030313232333435363738393A3B3C3D3E01
:100490003F404142434445464748494A4C4D4E4FF0
:1004A00050515354555658595A5B5D5E5F616264B2
:1004B000656668696B6C6D6F7072737577787A7B3F
:1004C0007D7E8082838587888A8C8E8F9193959696
:1004D000989A9C9EA0A2A3A5A7A9ABADAFB1B3B5B6
:1004E000B7BABCBEC0C2C4C6C9CBCDCFD1D4D6D892
:1004F000DBDDDFE2E4E7E9EBEEF0F3F5F8FAFDFF30
:100500000E0359004400360030004D005100000039
:100510000A0359004D0044004B0000000403090485
:1005200009023B00020100A0FA09040000010301D6
:100530000100092111010001224000070581030883
:10054000000A090401000103000000092111010053
:100550000122BC000705820320000A1201100100DD
:100560000000084D594D600200010200010501091B
:1005700002A10185020901A100050919012905153A
:10058000002501950575018102950175038101051D
:1005900001093009311581257F9502750881060909
:1005A000381581257F950175088106050C0A3802EA
:1005B0001581257F950175088106C0C00501098058
:1005C000A101850319012AB700150126B70095017D
:1005D00075108100C0050C0901A101850419012ACB
:1005E000A002150126A002950175108100C0050129
:1005F0000906A1018505050719E029E71500250170
:100600009508750181020507190029EF15002501DC
:1006100095F07501810205081901290595057501F7
:100620009102950175039101C005010906A101051B
:100630000719E029E7150025019508750181029544
:1006400001750881010507190029FF150026FF0023
:10065000950675088100050819012905950575019C
:100660009102950175039101C00011241FBECFEFC7
:10067000DAE0DEBFCDBF04B603FE27C08091680379
:1006800090916903A0916A03B0916B038730904BFE
:10069000A740B04BD1F410926803109269031092F6
:1006A0006A0310926B0314BE84B7877F84BF0FB6B2
:1006B000F894A89580916000886180936000109202
:1006C00060000FBEE0E0F8E3099511E0A0E0B1E0C2
:1006D000ECEDF7E502C005900D92AE3CB107D9F7FD
:1006E00023E0AEECB1E001C01D92A836B207E1F7FD
:1006F0000E942D250C94EC2B0C940000849A8C9A6B
:100700000895CF93C82F0E944804882329F0C1FD83
:1007100002C08C9A01C08C98CF91089581E0089511
:1007200081E008950C94900308950C9494031F9312
:10073000CF93DF9300D000D01F92CDB7DEB74983AF
:100740005A836B833091420289819A81311114C09E
:10075000662359F0222349F00E942E1D182F682F7E
:1007600089819A810E94D71C03C00E94021D182F04
:1007700069817A81812F04C00E942E1D69817A814E
:100780000F900F900F900F900F90DF91CF911F91CE
:100790000C945704FC01262F4081518162817381A2
:1007A00084810C949703CF93DF93EC0160E00E9467
:1007B000CA03BE01DF91CF910C9495030E94CF2014
:1007C0000E94661E811102C00E94161F0E946F10B7
:1007D0000C947E030C94720608950E94E3170E9405
:1007E000EC032FEF84E39CE0215080409040E1F740
:1007F00000C000000C94A9200F931F93CF93DF93A8
:10080000EC0161E00E94CA038C01BE010E949203C8
:100810008823A9F1BE01C8010E94D00F882379F175
:10082000BE01C8010E941D11882349F1BE01C80103
:100830000E946F11882319F1BE01C8010E949A120B
:100840008823E9F0BE01C8010E94850E8823B9F013
:100850008A81882369F001158CE5180731F00F3D76
:100860001C4531F40E94161F0AC00E94ED0307C008
:10087000CE01DF91CF911F910F910C948E0380E0F8
:10088000DF91CF911F910F91089508950C94450425
:1008900081E00895CF93C82F0E9446048C2F0E94B8
:1008A0008103CF91089580E090E0089508952BE4AE
:1008B000829FC0011124FC012FE0729FE00DF11D09
:1008C0001124E60FF11DEE0FFF1FEC5DFE4F859129
:1008D00094910895880F991FFC01EA51FD4F85916D
:1008E00094910895CF93DF930E9457040E948A0544
:1008F000EC018115904508F041C0C11580E4D8078E
:1009000008F0D1C0C83ED10510F5C03ED10508F0B1
:10091000FDC0C83AD10578F4C53AD10508F0A2C0A7
:10092000C130D10509F4F2C008F4EEC0C430D105DD
:1009300008F0ECC0E9C0CF3BD10508F49BC0C03C37
:10094000D10508F4E1C0CE01805C91099EC0C115BB
:1009500090E2D90758F4C11521E0D20708F0D6C0BB
:10096000C03FD10508F4D0C0D065D0C0C11580E328
:10097000D80708F08EC0CE019F7087C0C11595E5DD
:10098000D90708F043C0C11524E5D20708F0A2C07A
:10099000C11582E5D80708F5C11591E5D90708F01A
:1009A00085C0CE0174E0969587957A95E1F78370BE
:1009B0009C2F937021E030E002C0220F331F9A95E4
:1009C000E2F73C68382BCF70C695C69580E2C89F89
:1009D000E0011124C22BD32B99C09E012370332731
:1009E0008C2F86958695C115D34508F064C0C1E06B
:1009F000D0E002C0CC0FDD1F2A95E2F720E2829FF3
:100A0000C0011124C82BD92BDC6880C0C11529E591
:100A1000D207A0F4C11588E5D80708F060C0C11559
:100A200096E5D90708F070C08C2F0E941E068F71C2
:100A3000C82FD0E0DC2FCC27D06268C0C1152AE5D2
:100A4000D20708F451C0CE0190568115904208F0AB
:100A50005BC08D2F8F710E941E06DD27D0628F71C3
:100A6000D82B54C0C55AD0E0C65ADE4FC881D0E05A
:100A7000D0644CC0C85AD0E0CC0FDD1FC45DDE4F3F
:100A80000990D881C02DD46441C00E946A04EC0151
:100A90003DC0CE019927D3FF03C0EC01D86C36C00E
:100AA000EC01D06C33C0DF70D06A30C0DC2FCC27B3
:100AB000C16FD06A2BC0C1E0D0E002C0CC0FDD1FF7
:100AC0002A95E2F720E2829FC0011124C82BD92B7E
:100AD000DA681CC0DC2FCC27C46FD06A17C0DC2FAB
:100AE000CC27C06FD06A12C08C2F8F700E941E0658
:100AF00094E0D695C7959A95E1F7CF70D0E0DC2FBA
:100B0000CC27D069C82B02C0C0E0D0E0CE01DF9175
:100B1000CF9108958238910569F1B0F48133910540
:100B200009F46DC048F48932910509F463C08A3232
:100B3000910509F469C008958533910509F455C0FC
:100B400089339105B9F00895833E910569F138F430
:100B5000803E9105B1F0823E910509F10895863EEF
:100B60009105A9F1873E9105B9F1843E910509F0FF
:100B700064C023C02091590320FD4FC021FD4DC00A
:100B800008958091590380FD44C080915A0380FFED
:100B900044C08091590384FD42C083EE4DC08091D2
:100BA000590382FF38C0F5CF8091590382FD33C0CD
:100BB00080915A0380FD31C0ECCF80915A0381FFB0
:100BC00032C08091590384FD2AC087EE35C08091E0
:100BD000590383FF26C0F5CF8091590383FD21C0BF
:100BE00080915A0381FD1FC0ECCF8091590385FD90
:100BF0001CC01DC08091590385FD19C016C080918D
:100C0000590386FD16C017C08091590386FD13C095
:100C100010C089E311C082EE0FC080EE0DC080E0ED
:100C20000BC086EE09C084EE07C089E205C085E3EB
:100C300003C08AE201C081E390E0089590915903D6
:100C400092FF0DC0282F2871283019F4877F846007
:100C500006C0282F2471243011F48B7F886093FF05
:100C60000DC0282F2871283119F4877E846106C0B1
:100C7000282F2471243111F48B7E886120915A032E
:100C800020FF0DC0382F3871383019F4877F81600C
:100C900006C0382F3171313011F48E7F886021FF0A
:100CA0000DC0282F2871283119F4877E816106C074
:100CB000282F2171213111F48E7E886194FD877E69
:100CC0000895E82FF0E0EE0FFF1FEB5EFC4F8081F0
:100CD00091810895089580EA8A95F1F7089508951D
:100CE0000C946F060C947006F894E82FE295EF7060
:100CF000F0E031A1282F2F7081E090E001C0880F33
:100D00002A95EAF7982F9095932391A392A1892B86
:100D100082A3789408950F931F93CF93DF9380E974
:100D20000E94740681E90E94740682E90E9474069A
:100D300083E90E94740685E90E947406CDE5D1E03E
:100D40000CE611E089910E9474060C171D07D1F77B
:100D5000EBE0F3E0A5E1B3E0119211921D921D9238
:100D600083E0E531F807C1F785E00E944907DF918C
:100D7000CF911F910F910C94DE037F928F929F92DF
:100D8000AF92BF92CF92DF92EF92FF920F931F9399
:100D9000CF93DF93CCE6D1E08BE0A82E83E0B82E92
:100DA00095E1E92E93E0F92E712C01E010E06E013F
:100DB0008881F894E82FE295EF70F0E021A18F7020
:100DC000A80102C0440F551F8A95E2F7CA01922F6D
:100DD000982B91A392A18095892382A378940E9455
:100DE0006B06EDE5F1E020E030E0812C912C4191A3
:100DF000A42FA295AF70B0E090968C9190E04F70C8
:100E000002C0959587954A95E2F780FD08C0C80114
:100E1000022E02C0880F991F0A94E2F702C080E0F8
:100E200090E0882A992A2F5F3F4F2F303105F9F63D
:100E30002196F60180810E947406F50180819181DE
:100E40008816990621F09182808281E001C080E0BD
:100E5000782AF2E0AF0EB11CEA14FB0409F0A7CF28
:100E6000272D45E065E173E08BE093E00E944A079F
:100E70000E94EA03872DDF91CF911F910F91FF9080
:100E8000EF90DF90CF90BF90AF909F908F907F902A
:100E900008950895FF920F931F93CF93DF93F82E39
:100EA000092F162FD72FC42F222349F081E08093DA
:100EB000D0010E9468209093CF018093CE01809151
:100EC000D0018823D9F08091CE019091CF010E946A
:100ED0007420069798F0EF2DF02FA12FBD2F80E002
:100EE00090E04C2F50E08417950734F42191319114
:100EF0002D933D930196F7CF1092D001DF91CF91C2
:100F00001F910F91FF900895EF92FF920F931F93FF
:100F1000CF93DF938B01682F11110AC0442329F06E
:100F2000E82FF0E0E050FC4F6491762F862F75C0DB
:100F3000212F30E0E82FF0E0442321F0E050FC4F77
:100F4000E491F0E046E0049FC0011124CFEFD0E02F
:100F5000BE010E949B2A4BEA4603C001479F900DA9
:100F60001124800F911D800F911D982F990F890FCB
:100F7000AE01421B530B4E9FD0014F9FB00D5E9FA1
:100F8000B00D11249B2F189FA0011124452F552728
:100F90008E01041B150B0E9FA0010F9F500D1E9F6D
:100FA000500D11247E01E81AF108E29E8001E39EB3
:100FB000100DF29E100D1124212F3327C21BD30BCD
:100FC000CE9F9001CF9F300DDE9F300D11246230F7
:100FD0007105A9F048F46115710569F0613071057A
:100FE000C9F48B2F752F0DC06430710581F058F056
:100FF0006630710579F47E2F8B2F932F0DC0832FD0
:101000007B2F9E2F09C08E2F7B2F952F05C08E2FF3
:10101000732F02C07E2F852F692FDF91CF911F91F3
:101020000F91FF90EF90089541E00E94840708958A
:1010300008950E9414080895CF93DF93762FE90155
:10104000682F842F0E941908798368838A83DF912F
:10105000CF91089580911F03282F269530E0211508
:10106000310519F48170826005C02B32310524F0FE
:101070008170846580931F03089588E090E00C944C
:101080008D2BCF92DF92EF92FF926B017C010E9439
:101090002A08B701A60188E090E0FF90EF90DF906A
:1010A000CF900C94AB2BEFE1F3E083E080831182CF
:1010B0008FEF828383831482608171818281938127
:1010C0000C94410880911F0380FF02C0869508950B
:1010D00080E0089590912303933018F49F5F9093DC
:1010E0002303882351F060911F03709120038091A6
:1010F0002103909122030C944108089581E00C94FF
:101100006A0890912303992319F091509093230337
:10111000882351F060911F03709120038091210377
:10112000909122030C944108089581E00C94810869
:1011300070E00C947F106091080180911F0380FF84
:101140000AC08091070123E0829FC00111248C5DB9
:101150009C4F0C9498088091090190910A0189177D
:1011600080F7E82FF0E09F01220F331FE20FF31FFB
:10117000EC5DFC4F1182108212828F5FF0CF909154
:101180001F0390FF16C09091090120910A01921748
:1011900070F4E92FF0E0DF01AA0FBB1FEA0FFB1F7D
:1011A000EC5DFC4F8183608342839F5FF0CF0C94A2
:1011B0009B080895CF93DF9300D01F92CDB7DEB781
:1011C00090911F0390FF0AC09E012F5F3F4F0E9426
:1011D0001C084B8169818A810E94BF080F900F9083
:1011E0000F90DF91CF910895CF93DF93EC01EC81C5
:1011F000F0E0E550FD4F4491EFE1F3E06281818141
:101200000E94DA088C818F5F8C83DF91CF910895E3
:10121000CF93DF93EC01EFE1F3E0438162818C81B6
:101220000E94DA088C818F5F8C83DF91CF910895C3
:101230000F931F93CF93DF9300D01F92CDB7DEB7EC
:101240008C018091D10181110AC09E012F5F3F4F17
:101250004FEF6FEF0E941C088A818093D101F80143
:101260008481813051F028F0823061F44091D101C5
:101270000AC08091D10140E007C06091D10140E0F7
:1012800080E003C040E080E060E00E94BF08F80119
:10129000848190E0019663E070E00E94AF2A84832D
:1012A0000F900F900F90DF91CF911F910F910895A4
:1012B000AF92BF92CF92DF92EF92FF920F931F9364
:1012C000CF93DF9300D01F92CDB7DEB7182FF62E45
:1012D000042FE22E90911F0390FF6DC0E92FE69539
:1012E000AE2FB0E0AF58BE4F8C9180932B029E7F03
:1012F000923061F49E012F5F3F4F812F0E941C08A6
:101300004B8169818A810E94BF0843C0823019F4F1
:10131000009122033EC0863019F41091200339C099
:101320008930D9F38931A9F5E9518E2F8170D82EF2
:10133000E695F0E0E550FC4FA590B490C12CBB249D
:1013400060910B01C61618F52C2D30E0A29EC0014D
:10135000A39E900DB29E900D112470E00E949B2AD6
:10136000812FD11002C0860F01C0861B9091090108
:10137000290F311DA901440F551F240F351F2C5D66
:101380003C4F402F6F2D0E941C08C394D9CF0E9460
:101390009B0810932003F092210300932203EE2078
:1013A00051F060911F03709120038091210390916F
:1013B00022030E9441080F900F900F90DF91CF9170
:1013C0001F910F91FF90EF90DF90CF90BF90AF9063
:1013D0000895EFE1F3E09181282F4381628188E055
:1013E000890F0C94580981E00C94E909EFE1F3E0CE
:1013F0009181282F4381628188EF890F0C945809CD
:1014000081E00C94F609EFE1F3E0628128E0620FDD
:1014100008F46FEF282F438181810C94580981E0F3
:101420000C94030AEFE1F3E0628128E0621B08F408
:1014300060E0282F438181810C94580981E00C944D
:10144000120AEFE1F3E0438128E0420F08F44FEF86
:10145000282F628181810C94580981E00C94210A23
:10146000EFE1F3E0438128E0421B08F440E0282F3D
:10147000628181810C94580981E00C94300A20E04B
:101480000C945809FF920F931F93CF93DF93EC01B5
:10149000F12C0FEF10E060910B01F616F0F4809143
:1014A00009012F2D30E0280F311DC901880F991F28
:1014B000280F391F2C5D3C4F70E0C8010E94AF2AF5
:1014C000962F8C814091220360912103F99E800D1B
:1014D00011240E941C08F394DECF0E949B089A817D
:1014E0008C8190FF02C08F5F01C081508C83DF919F
:1014F000CF911F910F91FF900895BF92CF92DF92ED
:10150000EF92FF920F931F93CF93DF93FC018281A1
:1015100080FF02C00FEF01C001E010E080910B01DD
:10152000181708F040C080910901C12ED12CE601A6
:10153000C80FD11DCE01880F991FC80FD91FCC5DD0
:10154000DC4F198218821A8234E0E32EF12CB12C80
:101550008091D3018B0D813114F08F7005C087FF0E
:1015600003C090910B01890F082E000C990BC8162F
:10157000D90691F4809122038E9DA0018F9D500D7C
:10158000112455954795559547959E0160912103E6
:10159000809120030E941C08B00EF1E0EF1AF108C0
:1015A000B9F61F5FBBCF0E949B088091D301013029
:1015B00031F4811102C080910B01815007C090E08D
:1015C000019660910B0170E00E94AF2A8093D301D5
:1015D000DF91CF911F910F91FF90EF90DF90CF900F
:1015E000BF900895CF938091090190910A018917C6
:1015F00070F4E82FF0E09F01220F331FE20FF31F7A
:10160000EC5DFC4F1182108212828F5FF0CFC0E040
:1016100060910B01C617C0F5EC2FF0E070E0CF0130
:101620000E94AF2A20910901820F2091D201022E3F
:10163000000C330B90E0E217F307CCF02091060189
:10164000022E000C330B2E173F078CF09C01220F4B
:10165000331F820F931F9C012C5D3C4F409122034E
:1016600060912103809120030E941C080BC0FC01A3
:10167000EE0FFF1F8E0F9F1FFC01EC5DFC4F1182D0
:1016800010821282CF5FC4CF0E949B082091050177
:101690008091D201820F8093D20190910601920F26
:1016A0009093060119165CF4082E000C990B4091DA
:1016B0000B0150E041505109841795071CF021950A
:1016C00020930501CF9108958F929F92AF92BF9280
:1016D000CF92DF92EF92FF920F931F93CF93DF93FE
:1016E0008C01FC014481C42FD0E09E01DE010E94E8
:1016F000F32A9B01AC010E94092B6B017C01E0E203
:10170000F0E0EC1BFD0BA5E5B0E09B01AC010E94F5
:10171000092B4B015C019F01DF010E94EB2A9B0119
:10172000AC010E94142B9B01AC012C0D3D1D4E1DE4
:101730005F1DC501B4010E94C32AC22FD22F2A32D5
:1017400028F4F3E02F9F900111240DC025E530E02F
:101750002C1B3109C901880F991F280F391F37FF2A
:1017600002C02F5F3F4F35952795C22FC095F12CB2
:1017700085E5E82EED1A80910B01F816C8F4F1FC0E
:1017800002C08E2D01C08D2F909109012F2D30E0C8
:10179000290F311DA901440F551F240F351F2C5D42
:1017A0003C4F4C2F609121030E941C08F394E3CF1F
:1017B0000E949B08F8018481811102C091E003C05E
:1017C000803219F49FEF9093040190910401890FE6
:1017D000F8018483DF91CF911F910F91FF90EF90DB
:1017E000DF90CF90BF90AF909F908F9008950F9310
:1017F0001F93CF93DF93EC0100E010E080910B0189
:10180000282F30E00217130724F590910901980161
:10181000290F311DA901440F551F240F351F2C5DC1
:101820003C4F869590E04C81081719071CF444231F
:1018300031F002C0411103C04091220301C040E0D9
:1018400060912103809120030E941C080F5F1F4FAD
:10185000D5CF0E949B088C8190E0019681709927DA
:101860008C83DF91CF911F910F9108958F929F925A
:10187000AF92BF92CF92DF92EF92FF920F931F939E
:10188000CF93DF93FC01B280948081E0848300E0F9
:1018900015E05BE4A52E88248394EE24EA94F12CD1
:1018A0007BE4C72ED12C80910B01081708F08FC064
:1018B000C02FD0E01C9FF0011D9FF00D1124EC52B1
:1018C000FE4F911003C01382128267C0238122232E
:1018D00089F1215023833481332319F09A2D921BEF
:1018E00001C0922F809122031C9FF0011D9FF00DDB
:1018F0001124EC52FE4F899FC0011124B6010E94B1
:101900009B2A6283211104C0332311F01482A38225
:1019100022E02B1508F441C01C9FF0011D9FF00D23
:101920001124EC52FE4F809120038083809121038B
:10193000818333C00E94682B8230914074F582E02D
:101940008B1530F40E94682BB7010E94AF2A02C0A9
:10195000809120031C9FF0011D9FF00D1124EC527B
:10196000FE4F808322E02B1558F40E94682B2091B3
:1019700021032695622F70E00E94AF2A820F02C0D9
:10198000809121031C9FF0011D9FF00D1124EC524A
:10199000FE4F81831282A3828482809109019E017D
:1019A000280F311DC901880F991F280F391F2C5D81
:1019B0003C4F1C9FF0011D9FF00D1124EC52FE4F77
:1019C0004281618180810E941C080F5F6CCFDF9192
:1019D000CF911F910F91FF90EF90DF90CF90BF902C
:1019E000AF909F908F900C949B08EFE1F3E0808183
:1019F0008E7F808360817181828193810E94410802
:101A000010922C022FEF80E792E02150804090400E
:101A1000E1F700C000000C949B0860911F036695DD
:101A200070E04BE050E08CE091E00E94782B892B35
:101A300019F481E080932C020E9468209093250283
:101A400080932402089590911F0390FF35C09170F8
:101A5000811102C0926006C08B3210F0946502C002
:101A6000880F982B90931F03662351F060911F03FA
:101A70007091200380912103909122030E944108DC
:101A800060911F03669570E04BE050E08CE091E0C0
:101A90000E94782B892B19F010922C0202C00E9410
:101AA0000D0D81E080932702409122036091210374
:101AB000809120030C943F0A0895682F90911F0392
:101AC000969581E0890F8B3208F081E00C94230D0C
:101AD00081E00C945D0D682F90911F0396958FEF18
:101AE000890F09F48AE20C94230D81E00C946B0DAC
:101AF00061E00C94230DEFE1F3E08081816080834D
:101B000086950C94780D80911F0380FD0C94F50C44
:101B10000C947B0D60E00C94230D80912A028111BE
:101B20002EC00E94661E811104C00E94161F0E94D2
:101B300053080E943D0860931F0370932003809315
:101B40002103909322036E7F61F40E9453080E9448
:101B50003D0860931F0370932003809321039093AB
:101B600022030E942A0810922C0280911F0380FFFA
:101B700003C086950E948A0D81E080932A02089511
:101B80000F931F93CF93DF9380912C02882309F446
:101B90009CC080912B02E0911F03E695E81BE09327
:101BA0002602823049F4F0E0E950FD4FE491CE2F57
:101BB000D0E004EF18E059C0863049F4F0E0EC5072
:101BC000FD4FE491CE2FD0E008E019E04EC08930FF
:101BD00051F4E695F0E0EF50FD4FE491CE2FD0E0C8
:101BE00002E41AE042C08F3051F4E695F0E0E25191
:101BF000FD4FE491CE2FD0E00DE71AE036C08531DD
:101C000049F4F0E0E551FD4FE491CE2FD0E002EF32
:101C10001AE02BC08831D9F0833239F4E9EEF2E0D2
:101C2000C591D49108E119E020C08432A9F0853231
:101C3000C1F48E2F63E00E948F2AE92FF0E0EA5171
:101C4000FD4FE491CE2FD0E006E31CE00EC0C8E2C9
:101C5000D0E004E61BE009C0C4EFD1E007EF1BE0D1
:101C600004C0C0EDD7E008E118E080912702882386
:101C700089F0109227020E9468209E0120953095DD
:101C8000820F931F909325028093240210922902C1
:101C90001092280280912402909125020E947420C3
:101CA0008C179D0790F0E0912402F0912502CE0F51
:101CB000DF1FD0932502C093240284E292E0F80152
:101CC000DF91CF911F910F910994DF91CF911F91D7
:101CD0000F910895882311F0FA0101C0FB010994C6
:101CE000CF93DF93C82FD62F0E9462088C1740F045
:101CF0000E9462088D1720F4DF91CF910C94680D3B
:101D00008C2FDF91CF910C94780D0F931F93CF936D
:101D1000FB01C281CC2309F463C08C010E94AF1D7A
:101D20008272F801E35CFC45E431F10508F059C02A
:101D3000EA5AFF4F0C94E52A0E94830D06C045E73E
:101D40005DE068E67DE00E946A0EC0E04AC048E6B9
:101D50005DE065E77DE0F7CF40E05AE063EF79E0D2
:101D6000F2CF43EF59E060E07AE0EDCF4EE15AE088
:101D70006FE07AE0E8CF4FE05AE06EE17AE0E3CF3F
:101D80004CE35AE06DE27AE0DECF4DE25AE06CE3DC
:101D90007AE0D9CF45E958E06EE778E0D4CF4EE756
:101DA00058E065E978E0CFCF81E017C065E082E0D8
:101DB00010C068E086E00DC06EE089E00AC064E112
:101DC0008FE007C067E185E104C088E106C062E2F8
:101DD00089E10E94700EB9CF83E20E94780DB5CFE1
:101DE000C1E08C2FCF911F910F9108950E94661E24
:101DF000811102C00E94161F0E94971E80935403F7
:101E0000282F26952695269530E02630310524F09A
:101E100087708862809354038091540380FF04C0CC
:101E200086958695869501C080E00C9405102091DA
:101E30005403822F869586958695482F50E045302D
:101E4000510554F48F5F982F990F990F990F822F96
:101E50008770892B80935403809154038160809311
:101E600054030E949B1E8091540386958695869507
:101E70000C94051080915403982F969596959695FD
:101E8000A1F0915E990F990F990F8770892B80931C
:101E90005403887F91E009F490E08091540390FB13
:101EA00080F9809354030E949B1E80915403869571
:101EB000869586950C9405108091540380FD13C07F
:101EC000816080935403813019F489E08093540336
:101ED000809154030E949B1E8091540386958695A1
:101EE00086950C94051008958091540380FF08C0D6
:101EF0008E7F809354030E949B1E80E00C940510FB
:101F000008958091540380FD0C94740F0C945C0F21
:101F100090915403892F8695869586958F5F8F7152
:101F20009770863038F4880F880F880F892B80933C
:101F3000540302C09093540380915403887F91E02E
:101F400009F490E08091540390FB80F9809354034E
:101F50000E949B1E809154038695869586950C94CD
:101F60000510863008F085E0909154039770282F73
:101F7000220F220F220F922B90935403987F21E07F
:101F800009F420E09091540320FB90F990935403BE
:101F90000C9405100E94B10F809154030C949B1E69
:101FA0009C01FB018281882349F12E3BFCE53F0720
:101FB000C9F040F42C3BECE53E0769F02D3B3C4575
:101FC00061F00895203C9CE5390791F070F0213CC8
:101FD0003C4589F0089585E001C080E00E94CA0F69
:101FE00080E008950E943A0FFBCF0E94170FF8CFB0
:101FF0000E94810FF5CF0E94880FF2CF81E00895F3
:10200000279A2F9808952F980895CF92DF92EF92F4
:10201000FF92CF93C82F863050F4811109C0809170
:102020008000877F809380000E94031006C0C5E077
:10203000809180008860809380002C2F30E0AFEF8B
:10204000BFEF0E94F32A25E030E040E050E00E941C
:10205000C32AB42FA32F922F8827492F5A2F6B2FD3
:102060007727CA014C3724E1520728F469E070E071
:102070000E949B2A29C0DB01CA018A50974DAF4FAD
:10208000BF4F6627782F892F9A2F25EF38E241E03E
:1020900050E00E94C32A69017A01CA01B9010E9475
:1020A0007F2A9B01AC01C701B6010E947F2ABB2792
:1020B000A92F982F872F009721E0A207B10511F0D3
:1020C000BC0102C06FEF7FEF70938D0060938C00B6
:1020D000CF91FF90EF90DF90CF90089508950E94E8
:1020E00000108AE08093800089E1809381008FEF67
:1020F0009FEF90938700809386000C94F60E6A9A67
:102100002EB12B7F3EB134604FB7F894FC01CB0168
:10211000880F991F680F791F6E0F7F1FE617F7074B
:1021200089F0819198E03EB9000000C087FF2EB988
:10213000880F000000C000C000C02EB900C09A95F2
:1021400091F7ECCF4FBF8FE594E00197F1F700C016
:10215000000008950F931F93CF93DF93C42FD22FC6
:10216000FC0182818823C9F040932F020E946820DD
:1021700090932E0280932D0280E28C0F883008F01D
:1021800057C0C77081E001C0880FCA95EAF7DF9198
:10219000CF911F910F910C94531580912F024813EA
:1021A00030C080912D0290912E020E947420883CB4
:1021B000910538F510E21D0FCD17B9F080E28C0FB4
:1021C000883040F4C77081E001C0880FCA95EAF7F3
:1021D0000E945A15183028F581E09D2F977001C094
:1021E000880F9A95EAF70E945315802F0E94401598
:1021F0001830F0F4D77081E001C0880FDA95EAF763
:102200000AC080E28C0F883098F4C77081E001C06A
:10221000880FCA95EAF7DF91CF911F910F910C9427
:102220005A15802FDF91CF911F910F910C9440157B
:10223000DF91CF911F910F9108950F939C01CB01D6
:10224000243F4CE5340731F188F4293DFCE53F0794
:10225000D9F02A3D4CE5340779F1283D3C45A9F5F4
:1022600006E221EE41EE68ED7CE52BC0263FFCE561
:102270003F07E1F0A8F0273F3C4539F507E225EE9E
:1022800046EE67EF7CE51DC007E225EE45EE69ED01
:102290007CE517C006E221EE40EE64EF7CE511C05C
:1022A00007E225EE44EE65EF7CE50BC006E221EE89
:1022B00042EE66EF7CE505C008E221E045EE6AEDFE
:1022C0007CE50E94AA1080E008C0FC01828188237E
:1022D00019F010922F0201C081E00F910895CF9361
:1022E000DF93EC01FB018281882309F41FC1C23016
:1022F000FCE5DF0708F41BC1C6319CE5D90738F0BF
:102300009E012B5F3C452930310508F010C10E9429
:10231000791E90935A0380935903C031ECE5DE0790
:1023200009F4C3C008F041C0C8308CE5D80709F4EF
:102330009AC0F0F4C430ECE5DE0709F487C068F415
:10234000C2308CE5D80709F477C0C330DC4509F00A
:10235000E3C080915903826076C0C630ECE5DE07A9
:1023600009F46EC008F07BC08091590388606BC08F
:10237000CC308CE5D80709F485C068F4CA30ECE5A8
:10238000DE0709F474C008F079C00E94E317809159
:102390005903806858C0CE308CE5D80709F476C060
:1023A00008F07FC0809159038BC0CC3FECE5DE077D
:1023B00009F44FC018F5C3318CE5D80709F47DC086
:1023C00078F4C131ECE5DE0709F473C0C231DC45B5
:1023D00009F0A2C00E94E317809159038F7733C0A0
:1023E000C5318CE5D80709F472C008F486C0CB3F2C
:1023F000DC4509F091C080915A033EC0C115FDE54E
:10240000DF0709F45FC058F4CE3F9CE5D90709F413
:1024100044C008F43FC080915A0382602DC0C2308E
:10242000FDE5DF0709F475C008F45DC0C330DD4584
:1024300009F072C080E06EC080915903816003C0D2
:102440008091590380618093590366C0809159033C
:1024500011C080915A03826080935A035DC08091BD
:1024600059038062F0CF809159038064ECCF809152
:10247000590388608460E7CF8160EECF8091590373
:102480008E7FE1CF809159038D7FDDCF80915903FD
:10249000877FD9CF80915A0318C080915A038D7FCE
:1024A000DBCF809159038F7ECECF809159038F7DF2
:1024B000CACF809159038F7BC6CF80915903877F04
:1024C0008B7FC1CF80915A038D7F8E7FC5CF809146
:1024D000590382FB222720F991E0922790FB82F991
:1024E00090FB83F9B0CF80915A03982F909591700B
:1024F0008E7F892B90FB81F9AFCF0E94E3178091EB
:10250000590387FB222720F991E0922790FB87F956
:102510009ACF81E00E94181F8091590390915A032D
:102520000E948A1E0E94E31780E001C081E0DF91D3
:10253000CF910895CF93DF9386319C4541F5EB0110
:102540000E94AF1D982F8A812091170130911801A8
:10255000882379F09A7A81E009F480E08093300250
:10256000911102C069E201C065E3C9010E94B31F75
:102570000AC080913002811102C069E201C065E3A6
:10258000C9010E94BE1F0E94FD1D80E001C081E0C4
:10259000DF91CF910895909336028093350208958C
:1025A000E0913502F0913602309721F00190F081F0
:1025B000E02D099480E00895E0913502F091360213
:1025C000309799F020912B01222359F02091590343
:1025D00027FF07C0DC012C9111962C93119725E061
:1025E0002C930280F381E02D09940895E091350247
:1025F000F0913602309739F022E0DC012C93048010
:10260000F581E02D09940895209133023091340230
:102610002817390771F09093340280933302E091C8
:102620003502F0913602309721F00680F781E02DD7
:102630000994089520913102309132022817390708
:1026400071F09093320280933102E0913502F09163
:102650003602309721F00084F185E02D0994089529
:1026600085B7806885BF85B7806885BF089581E09C
:1026700008950C94371308950C943B130C943B135A
:102680000C943E130C943B130C9442130C943B1388
:102690000E9430130E9446130C9444130E945F2042
:1026A0000E948B060E94E3200E94F60E0E948D0D70
:1026B0000C9440137F928F929F92AF92BF92CF92D1
:1026C000DF92EF92FF920F931F93CF93DF93CDB7DB
:1026D000DEB72A970FB6F894DEBF0FBECDBF0E94BB
:1026E0003C130E943B130E94BD060E9439138111C6
:1026F00011C08FEF89838A831B820E9468208160CA
:10270000782F9D838C8349815A816B818D810E94B2
:1027100012144FC048E3A42E42E0B42E00E010E0B3
:10272000702E802F0E9461066C01F50181909190BE
:102730005F01882699268114910431F40F5F1F4FA1
:102740000530110569F7D5CF8091DA0281FD0E942D
:102750006A0680E0EE24E394F12C94012E213F21BF
:10276000232B09F18E837F82CE20DF2081E0CD28CC
:1027700009F480E088870E9468208160782F9A871A
:1027800089874E815F8168858A850E941214000FB7
:10279000111FF801E85CFD4F80819181E826F92640
:1027A000F182E08206C08F5FEE0CFF1C8F30A9F62D
:1027B000C5CF0E94C00D0E946E100E9492220E94FE
:1027C000D012909137028917C9F00E94D0128093DD
:1027D00037022A960FB6F894DEBF0FBECDBFDF9149
:1027E000CF911F910F91FF90EF90DF90CF90BF900E
:1027F000AF909F908F907F900C944A042A960FB6CA
:10280000F894DEBF0FBECDBFDF91CF911F910F9126
:10281000FF90EF90DF90CF90BF90AF909F908F9000
:102820007F900895CF93DF93CDB7DEB72B970FB688
:10283000F894DEBF0FBECDBF4F83588769877A8774
:102840008B87DE01119686E0FD0111928A95E9F7EA
:1028500085E0FE01379601900D928A95E1F7498156
:102860005A816B817C818D819E810E949C1A2B965E
:102870000FB6F894DEBF0FBECDBFDF91CF910895A4
:10288000FC01808191810E94701D0895CF9388235F
:1028900009F498C0C82F8238A1F469E38091170128
:1028A000909118010E94B31F0E94FD1D2FEF81EE31
:1028B00094E0215080409040E1F700C0000069E3BF
:1028C00015C08338E1F463E58091170190911801F8
:1028D0000E94B31F0E94FD1D2FEF81EE94E0215056
:1028E00080409040E1F700C0000063E5809117014F
:1028F000909118010E94BE1FCF910C94FD1D843849
:10290000A1F467E480911701909118010E94B31F10
:102910000E94FD1D2FEF81EE94E0215080409040F9
:10292000E1F700C0000067E4E1CF8CEF8C0F813A43
:10293000D0F46C2F80911701909118010E94331FE1
:10294000882349F06C2F80911701909118010E9403
:10295000BE1F0E94FD1D6C2F8091170190911801E0
:102960000E94B31FC9CF80E28C0F883048F4C77033
:1029700081E001C0880FCA95EAF70E94B21DBCCF62
:10298000EBE5EC0FE33040F4F0E0E653FE4F8081DE
:1029900090E0CF910C940413E8E5EC0FE73150F48C
:1029A000F0E0EE0FFF1FE456FE4F80819181CF9142
:1029B0000C941A13C03F30F08C2F0E948721CF91C6
:1029C0000C947422CF910895882309F458C082385A
:1029D00059F469E380911701909118010E94B31F87
:1029E0000E94FD1D69E30CC0833891F463E580917A
:1029F0001701909118010E94B31F0E94FD1D63E50D
:102A000080911701909118010E94BE1F0C94FD1D2A
:102A1000843859F467E480911701909118010E945D
:102A2000B31F0E94FD1D67E4EBCF9CEF980F913A16
:102A300010F4682FE5CF90E2980F983050F487702B
:102A400091E001C0990F8A95EAF7892F0E94B81D7D
:102A5000DDCF9BE5980F933020F480E090E00C945C
:102A6000041398E5980F973120F480E090E00C94DF
:102A70001A13803F20F00E94EF210C9474220895D5
:102A8000CF93C82F0E944614C93349F42FEF87EE25
:102A900093E0215080409040E1F700C000008C2F6F
:102AA000CF910C94E414882321F00E94B21D0C9461
:102AB000FD1D0895882321F00E94B81D0C94FD1D72
:102AC0000895CF92DF92EF92FF920F931F93CF93CF
:102AD000DF937C01062FC72FFC01158112951F7013
:102AE000D281D1110E94CF1D0E94A81D882399F088
:102AF000DD2389F08C2F807F803421F080E2800FED
:102B0000883048F082E00E94471E0E94A81D91E094
:102B1000D82ED92601C0D12CCC2EC2948FE0C82249
:102B20008C2D90E0FC01E659FF4F0C94E52A8C2F88
:102B3000807FCF70882311F0C295C07FDD2399F08C
:102B4000CC2309F48DC180E2800F883010F0011190
:102B500004C08C2F0E94B21D03C08C2F0E94C21D86
:102B60000E94FD1D7DC1802F0E94E414CC2309F436
:102B70009CC180E2800F883010F0011104C08C2FBE
:102B80000E94B81D03C08C2F0E94C81D0E94FD1D0D
:102B90008CC18C2F807FCF70803211F0C295C07FA6
:102BA000002319F00130C9F022C0DD2371F0112398
:102BB00041F0113031F40E94E21D8C2B0E94EA1D7D
:102BC00074C10E94E21D8C2B1DC0112319F011301D
:102BD00009F46BC10E94F31D25C0DD2321F01630DE
:102BE00008F063C10EC0153008F05FC11BC0DD23C3
:102BF00061F0112331F0F701858180FF31C18F70C1
:102C000085838C2F0E94531550C1112359F009332D
:102C100009F037C1FFEF27EE83E0F15020408040FC
:102C2000E1F72DC18C2F0E945A153FC18C2F86953C
:102C30008695837019F0813061F037C1DD2321F072
:102C4000802F9C2F937002C080E090E00E940413BC
:102C500034C1DD2321F0802F9C2F937002C080E0CF
:102C600090E00E941A1329C1802FDD2319F00E94E1
:102C7000872102C00E94EF210E9474221EC18C2F66
:102C8000837009F045C0D11114C1402F429546957B
:102C90004770440F440F602F6F70862F90E0A0E0C4
:102CA000B0E0042E04C0880F991FAA1FBB1F0A940E
:102CB000D2F704FF10C00FE010E020E030E004C0C5
:102CC000000F111F221F331F4A95D2F70095109550
:102CD0002095309503C000E010E09801C695C69598
:102CE000C370BC01CD01602B712B822B932BC230A2
:102CF00049F058F4C13019F00E94ED1BDAC00E946F
:102D0000DB1BD7C00E94FF1BD4C00E94D91BD1C0BF
:102D1000DD2319F08C2F817001C08695882309F47A
:102D2000C8C0402F429546954770440F440F602F0E
:102D30006F70862F90E0A0E0B0E0042E04C0880FF2
:102D4000991FAA1FBB1F0A94D2F704FF10C00FE0FF
:102D500010E020E030E004C0000F111F221F331FDD
:102D60004A95D2F7009510952095309503C000E064
:102D700010E09801C695C695C370BC01CD01602BCB
:102D8000712B822B932BC23049F058F4C13019F0CB
:102D90000E94B21C8EC00E94A01C8BC00E94C41C4A
:102DA00088C00E94131C85C0CF70DD2339F08C2FA2
:102DB0000E94391C802F0E9453157BC0802F0E94D7
:102DC0005A158C2F0E945A1C74C0023F01F128F43E
:102DD000003F41F0013FA1F03FC0033FF9F0043F45
:102DE00039F13AC0DD2341F0153008F05EC08C2F78
:102DF0008F710E947F1C59C0163008F056C0F7CF63
:102E0000DD2339F08C2F8F710E94391C4EC0DD23D9
:102E1000C9F38C2F8F710E945A1C47C0DD2329F003
:102E20008C2F8F710E94241C40C00E941F1C3DC02B
:102E3000DD2349F0CF718C2F0E94391C63E08C2F69
:102E40000E94321E32C081E00E94471E123068F19B
:102E500082E00E94471E29C0DD2331F0112391F248
:102E6000802F0E94461421C0112399F2093349F49E
:102E70009FEFE7EEF3E09150E040F040E1F700C053
:102E80000000802F0E94E41410C04C2F4F70602F60
:102E9000C7010E9453040E944A1B0FC04C2F4F7061
:102EA000602FC7010E94560408C088EF8C0D843043
:102EB00020F40E94D0120E944A04DD20C9F00E9432
:102EC000A41D80FD15C0F70112820E949E1D0E9464
:102ED000391CC7010E9499170E949E1DDF91CF9156
:102EE0001F910F91FF90EF90DF90CF900C945A1CA0
:102EF000DF91CF911F910F91FF90EF90DF90CF90D6
:102F000008950F931F93CF93DF93EC01688179812C
:102F10008A810E947B1D8C010E94D61C0E94C71BC7
:102F2000B801CE010E946115DF91CF911F910F91E1
:102F30000895CF93DF93EC01988189812B813C81A7
:102F4000232B31F08F3F31F481E09F3F19F403C010
:102F500081E001C080E080FD19C0CE010E94FC0329
:102F600081110CC00E94A81D882381F08A818823CA
:102F700069F082E0DF91CF910C94471ECE010E9450
:102F80008117CE01DF91CF910C94D303DF91CF91C4
:102F900008950E94CF1D0E94DF1D0E94FD1D0E940A
:102FA000A5230E94742280E090E00E94041380E038
:102FB00090E00C941A1380911701909118010E94CF
:102FC000C91F0C94C9170E94BF1D0C94DB17E92F71
:102FD000E295EF704E2F50E0FA013297EE30F10596
:102FE000B0F4E658FF4F0C94E52A803F91F018F4B6
:102FF000883E68F40EC0843F51F40BC0883E48F010
:10300000813F29F406C093FB882780F9089580E06A
:10301000089581E008950E94701D0E94E7170895A9
:10302000CF93DF9300D000D01F92CDB7DEB70F90C3
:103030000F900F900F900F90DF91CF910895CF9345
:10304000DF9300D000D000D0CDB7DEB726960FB604
:10305000F894DEBF0FBECDBFDF91CF9108951F93CF
:10306000CF93DF93C091430216E080914402C817CA
:1030700099F0D0E01C9FF0011D9FF00D1124EB5B37
:10308000FD4F4081518162817381848195810E94CD
:103090001F182196C770E9CFDF91CF911F91089536
:1030A000409175025091760260917702709178029A
:1030B0008091790290917A020C941F180F931F93BC
:1030C000CF93DF9380917A0282958F7009F05DC073
:1030D00080917702882309F458C0809143021091AF
:1030E00044026091750270917602C0917802D0918D
:1030F000790291E06F3F09F090E0292F06E08117F7
:1031000009F443C0209721F07F3F21F030E003C055
:1031100031E001C0322F90E030FD34C0089FF00153
:10312000099FF00D1124DF01AB5BBD4F11963C915F
:103130001197371327C03C91361324C012963C9147
:10314000129731111FC013964D915C9114974C1B2F
:103150005D0B483C5105B0F480917A028F7080611C
:1031600080937A02E65BFD4F80818F70806180835F
:1031700085E792E00E949917DF91CF911F910F91FF
:103180000C942F1801968770BACFDF91CF911F91C1
:103190000F9108959F92AF92BF92CF92DF92EF92DC
:1031A000FF920F931F93CF93DF93CDB7DEB7619755
:1031B0000FB6F894DEBF0FBECDBF8C0185E0F801DD
:1031C000DE011D9601900D928A95E1F7F80140818C
:1031D0005181E2809091750260917602209178028F
:1031E000309179022115310531F06F3F31F481E0E2
:1031F0009F3F19F403C081E001C080E0F82FF17017
:103200009F2E80FD46C1F801A380B48085E7C82EBB
:1032100082E0D82EF0907702F501E21BF30BFF203D
:1032200009F4DFC080917A02E83CF10508F09BC008
:10323000282F207F09F052C0561313C0491311C024
:10324000FE2CE1100EC08F70806180937A020E9484
:103250005018C6010E94991780917A02F80185835F
:1032600058C1AB2831F05F3F31F481E04F3F19F492
:1032700003C081E001C080E080FD03C081E08E25B5
:1032800002C080E090E0F82FF170FF2E80FF1CC09C
:10329000809143022091440236E0821709F417C15D
:1032A00090E0389FF001399FF00D1124EB5BFD4F4A
:1032B0006181561306C06081461303C06281E61225
:1032C00003C001968770E9CFFE2CEE2009F421C1DE
:1032D00080917A02816080937A025AC0561306C0A8
:1032E000491304C0E11002C0F8019FC04D875E87FA
:1032F0008D859E850E940B18882379F1EE2069F157
:1033000020917A02822F82958F7090E0029774F05C
:10331000809175029091760298878F831986BB867B
:10332000AA862C87CE0107960E94991786E0F8019D
:10333000A5E7B2E001900D928A95E1F70E945E1830
:103340000E9450180DC0561729F14D875E878D8554
:103350009E850E940B1881112CC0C8010E949917EC
:10336000FF24F394D6C0282F207F69F77A2DB98ADD
:10337000A88A6E2D89890E94101885E792E00E9424
:10338000991786E0F60111928A95E9F70E94501884
:10339000F12CBFC04913D9CFE110D7CFF8018583F5
:1033A000C8010E94991786E0F60111928A95E9F703
:1033B000B0C0EE2091F220917A02822F82958F7018
:1033C00090E002970CF4B2CF809175029091760252
:1033D0009A8389831B82BD82AC822E83CE010196A3
:1033E000A3CFE83CF10508F047C0FE2CEE2009F41D
:1033F000B4CF561330C049132EC020917A0220FD5D
:1034000021C0822F82958F70482F50E041155105C1
:10341000C9F0F80125834F30510541F08F5F982F97
:103420009295907F822F8F70892B8583C8010E948F
:10343000991786E0F801A5E7B2E001900D928A9510
:10344000E1F742C086E0F801A5E7B2E001900D92F5
:103450008A95E1F75EC04D875E878D859E850E94C7
:103460000B18811163CF80917A02816080937A0278
:10347000C8010E9499174DC07A2DB98AA88A6E2D6D
:1034800089890E94101886E0F60111928A95E9F761
:103490001BC0EE2009F461CF4D875E878D859E8528
:1034A0000E940B18F82E882309F457CF86E0F80104
:1034B000A5E7B2E001900D928A95E1F785E792E0E9
:1034C0000E9440140E945E180E94501822C04D872E
:1034D0005E878D859E850E94701D292F22952F70F5
:1034E000223028F49F7039F0811105C00BC02430C0
:1034F00028F49F7049F4805E883020F0C8010E9453
:1035000099179F2CF92C05C0F8019581907F99F7A8
:10351000F9CF8F2D61960FB6F894DEBF0FBECDBFE9
:10352000DF91CF911F910F91FF90EF90DF90CF909F
:10353000BF90AF909F9008951F93CF93DF93CDB727
:10354000DEB72C970FB6F894DEBF0FBECDBF4F830A
:10355000588769877A878B879C87CE0107960E9458
:10356000CA188823D1F09F8188852A853B85232B23
:1035700031F08F3F31F481E09F3F19F403C081E0C7
:1035800001C080E080FD47C04F81588569857A85FC
:103590008B859C850E941F183EC086E0FE013796F1
:1035A000DE01119601900D928A95E1F7FF81E88581
:1035B0006A857B856115710531F0EF3F31F481E05B
:1035C000FF3F19F403C081E001C080E080FD23C00B
:1035D0002091440230E0C9010196877099274091FB
:1035E000430250E084179507F1F1F983EA837D8364
:1035F0006C8396E0929FD001939FB00D1124AB5B3A
:10360000BD4FFE01319601900D929A95E1F780939E
:1036100044020E942F1816E08091430290914402C8
:10362000891771F1189FC00111248B5B9D4F0E9477
:10363000CA18882329F1E09143021E9FF00111244A
:10364000EB5BFD4F40815181628173818481958163
:103650000E941F188091430290E00196877099277D
:1036600080934302D9CF0E94E31710924402109234
:103670004302E5E7F2E086E0DF011D928A95E9F773
:103680002C960FB6F894DEBF0FBECDBFDF91CF9161
:103690001F910895EF92FF920F931F93CF93DF93A3
:1036A0008C01892B09F46CC0F12CEE24E394E80121
:1036B0002196F8018491843740F4843008F051C099
:1036C000813081F0823019F15BC0853709F444C044
:1036D000A8F19CE7980F903708F052C08F770E94AE
:1036E000E41441C00E5F1F4FFE01849190E2980FD9
:1036F000983050F48770FE2D01C0FF0F8A95EAF7CD
:103700008F2F0E94D21D14C00E9446142DC00E5F40
:103710001F4FFE01849190E2980F983060F48770FB
:10372000FE2D01C0FF0F8A95EAF78F2F0E94D81D4A
:103730000E94FD1D19C00E94E41416C00E5F1F4FA9
:10374000FE01C491CC2381F08FE99FE00197F1F74E
:1037500000C00000C150F6CF0E5F1F4FFE01F49075
:1037600003C00E9446148E018F2D882309F49FCF39
:10377000EFE9FFE03197F1F700C000008150F5CF8D
:10378000DF91CF911F910F91FF90EF9008950895D1
:1037900008950C94C81B0C94C91B0E94CB1B60930A
:1037A000B1027093B2028093B3029093B4020C946E
:1037B000C9170C94CD1B0F931F930091B102109168
:1037C000B2022091B3023091B402602B712B822B94
:1037D000932B1F910F910C94CD1B0F931F9300916E
:1037E000B1021091B2022091B3023091B402602371
:1037F0007123822393231F910F910C94CD1B0F9360
:103800001F930091B1021091B2022091B302309146
:10381000B40260277127822793271F910F910C9480
:10382000CD1B0C94C81B0E94111C6093AD027093B9
:10383000AE028093AF029093B0020C94C91760E07F
:1038400070E0CB010C94131C0F931F9341E050E0E8
:1038500060E070E08A019B0104C0000F111F221F6D
:10386000331F8A95D2F7C901B8011F910F910C94AB
:10387000131C0F931F9341E050E060E070E004C020
:10388000440F551F661F771F8A95D2F78091AD02AE
:103890009091AE02A091AF02B091B0028A019B015B
:1038A000082B192B2A2B3B2BC901B8011F910F9113
:1038B0000C94131C0F931F9341E050E060E070E004
:1038C00004C0440F551F661F771F8A95D2F7409595
:1038D0005095609570958091AD029091AE02A09147
:1038E000AF02B091B0028A019B01082319232A2359
:1038F0003B23C901B8011F910F910C94131C0F9326
:103900001F9341E050E060E070E004C0440F551F99
:10391000661F771F8A95D2F78091AD029091AE0213
:10392000A091AF02B091B0028A019B01082719272C
:103930002A273B27C901B8011F910F910C94131C32
:103940000F931F930091AD021091AE022091AF0230
:103950003091B002602B712B822B932B1F910F9112
:103960000C94131C0F931F930091AD021091AE02A3
:103970002091AF023091B002602371238223932300
:103980001F910F910C94131C0F931F930091AD0284
:103990001091AE022091AF023091B00260277127E2
:1039A000822793271F910F910C94131C08952FE0E9
:1039B000929F800D1124E82FE695E695E695877095
:1039C00051E001C0550F8A95EAF785E0E89FF001C4
:1039D0001124E558FD4F20E030E070E04081CB013C
:1039E000022E02C0969587950A94E2F78170819520
:1039F00084278523842781932F5F3F4F253031050E
:103A000069F708952FE0929F800D1124682F669525
:103A100066956695982F977085E0689FB001112490
:103A200040E050E080E0FB01E40FF51FE558FD4F5A
:103A3000208130E0092E02C0369527950A94E2F7DE
:103A400021703327042E01C0220F0A94EAF7822B3B
:103A50004F5F5F4F4530510531F70895BF92CF92C8
:103A6000DF92EF92FF920F931F93CF93DF938C011E
:103A7000C090AD02D090AE02E090AF02F090B002E4
:103A80008091B1029091B202A091B302B091B402C0
:103A9000C82AD92AEA2AFB2ACFE1D0E0D701C601F9
:103AA0000C2E04C0B695A795979587950A94D2F7E2
:103AB00080FD04C0219790F7B12C07C0BC2EB8013F
:103AC0008C2F0E9472040197A9F38B2DDF91CF9167
:103AD0001F910F91FF90EF90DF90CF90BF900895CE
:103AE000CF93DF93EC010E942E1DBE010E94720451
:103AF000DF91CF9108951F93CF93DF93EB019091C6
:103B00004202992321F0CB010E94701D13C088232B
:103B100049F0CB010E942E1D182F682FCE010E9464
:103B2000D71C04C0CB010E94021D182FBE01812F9B
:103B30000E947204DF91CF911F9108958091B50288
:103B400085958595859508958091B502877008952E
:103B50009091B502977081E009F480E0089580911A
:103B6000D90208959091D902892B8093D9020895A2
:103B700080959091D90289238093D902089510925B
:103B8000D90208959091D802892B8093D802089584
:103B900080959091D80289238093D802089510923D
:103BA000D80208959091D702892B8093D702089567
:103BB00080959091D70289238093D702089510921F
:103BC000D70208958091B602089508950C94E51DDA
:103BD0000C94E61D9091B602981721F08093B602DE
:103BE0000C94E81D08958091B602882329F0109264
:103BF000B60280E00C94E81D0895E0911701F09161
:103C000018018091D9028083E0911701F091180189
:103C100090818091D802892B8083E0911701F091E7
:103C2000180190818091D702892B80838091B60200
:103C3000882381F0E0911701F09118019081892B80
:103C4000808380911701909118010E941D1F81119E
:103C50000E94F31D80911701909118010C94DC12C1
:103C60000C94E51D98E0899F90011124262B209348
:103C7000B5020E94391C8091B50285958595859580
:103C80000C94301E1092B50280E00C94301E2091EE
:103C9000B502809582238093B502982F977079F4AE
:103CA00030E0482F082E000C550B2417350739F04B
:103CB0008595859585950E945A1C0C94421E089501
:103CC0006FEF7FEF80E090E00C94B72B80E090E006
:103CD0000E94932B21E08C3E9E4F09F020E0822F22
:103CE000089582E090E00C94852B83E090E00C94A2
:103CF000852BCF9384E090E00E94852BC82F81E232
:103D000090E00E94852B2C2F30E0A901582BCA018E
:103D1000CF910895CF93C92F682F84E090E00E943F
:103D2000992B6C2F81E290E0CF910C94992B86E037
:103D300090E00C94852B682F86E090E00C94992BF2
:103D4000AB01BC018FE090E00C94AB2BAB01BC014C
:103D500083E190E00C94AB2B60E070E0CB010C941D
:103D6000A61E60E070E0CB010E94A01E0C94AC1E69
:103D70006CEE7EEF80E090E00E94B72B60E082E086
:103D800090E00E94992B60E083E090E00E94992BE4
:103D90001092B1021092B2021092B3021092B402C9
:103DA00060E084E090E00E94992B60E081E290E086
:103DB0000E94992B60E085E090E00E94992B60E0E2
:103DC00086E090E00E94992B6FEF87E090E00E94E0
:103DD000992B40E050E0BA0188E090E00E94AB2BC4
:103DE00060E08DE090E00E94992B40E050E0BA0145
:103DF00088E190E00E94AB2B60E087E190E00E94B8
:103E0000992B40E050E0BA018CE190E00E94AB2B8E
:103E100060E080E290E00E94992B40E050E0BA011F
:103E200088E190E00E94AB2B0C94B11E0C94B81E5C
:103E3000682F8EE090E00C94992BFC0132968091D3
:103E40002B01882331F08091590387FF02C09EE146
:103E500001C096E080E0915028F021912223D9F30F
:103E60008F5FF9CF0895662351F120912B01222312
:103E7000E9F02091590327FF19C0462F4695469532
:103E800046954E31E0F4677021E030E002C0220F29
:103E9000331F6A95E2F7FC01E40FF11D828190E087
:103EA0002823392381E0232B69F409C0FC013296D1
:103EB00008962191621729F0E817F907D1F780E0F9
:103EC000089581E008959C01FC0132969FEF80E007
:103ED0004191461789F09F3F19F4411101C0982F75
:103EE0008F5F8630A9F79F3F39F0F901E90FF11D87
:103EF00097FDFA956283089508959C012A5F3F4FCC
:103F0000FC014281461301C0128201968217930779
:103F1000B9F70895262F2695269526952E3168F413
:103F2000FC01E20FF11D677021E030E001C0220FBB
:103F30006A95EAF78281282B22830895262F2695F9
:103F4000269526952E3170F4FC01E20FF11D677065
:103F500021E030E001C0220F6A95EAF720958281C6
:103F600028232283089520912B01222329F02091D8
:103F7000590327FD0C948A1F0C94631F20912B0179
:103F8000222329F02091590327FD0C949E1F0C94A5
:103F90007D1F20912B01FC013296222331F080916C
:103FA000590387FF02C08EE101C086E0DF011D9248
:103FB0008A95E9F7089508950C94DB1F0C94DB1F94
:103FC000CF930E94DE1F0E94BD060E94DC1FC0E04E
:103FD0008C2F0E946106892B29F4CF5FC530C1F771
:103FE00080E001C081E0CF9108950C94DB1F0C9418
:103FF000F51F80915F03843061F10E94F71F80E01C
:104000000E94051080E00E944A041092DB0220E426
:1040100088E190E00FB6F894A895809360000FBEF9
:104020002093600083B7817F846083BF83B7816002
:1040300083BF7894889583B78E7F83BF0FB6F8943B
:10404000A895809160008861809360001092600064
:104050000FBE08950C94DB1F0E94E3170E94F60E1A
:104060000E94D0120E944A040C942A201F920F92A0
:104070000FB60F9211248F939F93AF93BF938091AC
:10408000DB02811113C08091550390915603A091DA
:104090005703B09158034196A11DB11D809355035C
:1040A00090935603A0935703B0935803BF91AF91D9
:1040B0009F918F910F900FBE0F901F90189582E0E7
:1040C00084BD93E095BD9AEF97BD80936E000895EF
:1040D0002FB7F8948091550390915603A091570300
:1040E000B09158032FBF08959C014FB7F894809169
:1040F000550390915603A0915703B09158034FBFB9
:10410000821B930B089578941F920F920FB60F9213
:1041100011248F939F93AF93BF93809155039091F8
:104120005603A0915703B09158030196A11DB11DEC
:104130008093550390935603A0935703B09358036D
:10414000BF91AF919F918F910F900FBE0F901F90D5
:10415000189581E08093E00080E28093D80010926F
:10416000C9008FE19EE40197F1F700C0000087E0ED
:1041700090EBDC018093680390936903A0936A033A
:10418000B0936B039CE088E10FB6F894A8958093F8
:1041900060000FBE90936000FFCF0C94601E0E94E1
:1041A000BD068FE39CE90197F1F700C000000E9473
:1041B000BD0680E00E94610680FF04C00E94CD2001
:1041C0000C94A92008950E94661E811102C00E94CD
:1041D000161F0E94711E8093DA020E94791E90932E
:1041E0005A03809359030E94751E682F70E080E087
:1041F00090E00E94D91B6091AD027091AE02809157
:10420000AF029091B0020C94111C8091E20280FFE9
:104210000BC060911E0185E0689FB0011124759567
:104220006795759567952BC081FF09C060911E0148
:1042300085E0689FB00111247595679520C082FFC5
:1042400007C060911E0185E0689FB001112417C06E
:104250009091E1029923D1F060911D01961788F7A2
:1042600020911E0185E0289F90011124929FA001BA
:10427000939F500D112470E0CA010E94AF2A60384C
:10428000710540F46115710519F406C065E070E030
:10429000862F08958FE7089581E008958091E202C6
:1042A00080FF08C060911A0170E07595679575955B
:1042B000679521C081FF06C060911A0170E0759575
:1042C000679519C082FF04C060911A0170E010C0A8
:1042D0009091E002992399F0609119019617A0F747
:1042E00080911A01899FC001112470E00E94AF2AB9
:1042F0006038710540F46115710519F406C061E07C
:1043000070E0862F08958FE7089581E00895803F3B
:1043100021F40E940521819504C0813F29F40E9467
:1043200005218093E6020895823F21F40E94052131
:10433000819504C0833F29F40E9405218093E50202
:104340000895893F19F40E944E2105C08A3F31F437
:104350000E944E2181958093E70208958B3F21F4BE
:104360000E944E21819504C08C3F29F40E944E2169
:104370008093E8020895843F21F48091E4028160F3
:1043800017C0853F21F48091E402826011C0863F0E
:1043900021F48091E40284600BC0873F21F4809176
:1043A000E402886005C0883F31F48091E4028061B6
:1043B0008093E40208958D3F21F48091E2028160B0
:1043C0000BC08E3F21F48091E202826005C08F3FD6
:1043D00029F48091E20284608093E2020895803F94
:1043E00039F48091E60287FF6AC01092E60267C046
:1043F000813F29F48091E6021816BCF360C09091C9
:10440000E502823F29F497FF5AC01092E50257C097
:10441000833F19F41916CCF352C09091E702893FFB
:1044200031F419160CF04BC01092E70248C08A3FD5
:1044300019F497FF44C0F8CF8B3F39F48091E8021C
:1044400087FF3DC01092E8023AC08C3F29F480916A
:10445000E8021816BCF333C0843F21F48091E402D3
:104460008E7F17C0853F21F48091E4028D7F11C0BB
:10447000863F21F48091E4028B7F0BC0873F21F4BB
:104480008091E402877F05C0883F31F48091E40287
:104490008F7E8093E40213C08D3F21F48091E2026D
:1044A0008E7F0BC08E3F21F48091E2028D7F05C08C
:1044B0008F3F29F48091E2028B7F8093E20280910A
:1044C000E502811106C08091E602811102C01092BE
:1044D000E1028091E702811106C08091E80281111A
:1044E00002C01092E00208950E9468202091E50227
:1044F000211104C02091E602222321F09093DF02D3
:104500008093DE022091E702211104C02091E8028D
:10451000222321F09093DD028093DC0283EE92E06F
:104520000C94F612EF92FF920F931F93CF93DF93A9
:1045300000D000D000D0CDB7DEB786E0E3EEF2E0E9
:10454000DE01119601900D928A95E1F7E090E50267
:10455000F090E6020091E7021091E8021092E50265
:104560001092E6021092E7021092E802E11003C0F6
:10457000FF2009F45DC08091DE029091DF020E946D
:104580007420AC019091E102992339F020911F0130
:1045900030E02417350758F04BC0209120018AE005
:1045A000289F900111242417350718F041C09F3F20
:1045B00019F09F5F9093E102EE2061F00E940521C7
:1045C0001E1414F09FEF01C091E0989F902D1124CC
:1045D0009093E502FF2061F00E9405211F1414F062
:1045E0009FEF01C091E0989F902D11249093E602D7
:1045F0003091E5023323E1F02091E6022223C1F05D
:1046000045EB3403C0011124992319F09093E5027E
:1046100003C081E08093E50235EB2303C001112440
:10462000992319F09093E60203C081E08093E6029B
:10463000011103C0112309F45DC08091DC02909147
:10464000DD020E947420AC019091E002992339F0C0
:1046500020911B0130E02417350758F04BC0209102
:104660001C018AE0289F900111242417350718F0B7
:1046700041C09F3F19F09F5F9093E002002361F0DB
:104680000E944E21101614F09FEF01C091E0989FF8
:10469000902D11249093E702112361F00E944E2186
:1046A000111614F09FEF01C091E0989F902D1124F6
:1046B0009093E8023091E7023323E1F02091E80281
:1046C0002223C1F045EB3403C0011124992319F0D2
:1046D0009093E70203C081E08093E70235EB230368
:1046E000C0011124992319F09093E80203C081E0DE
:1046F0008093E8028091E50281110BC08091E6026F
:10470000811107C08091E702811103C08091E80206
:1047100081110E947422EB82FC820D831E8386E04D
:10472000FE013196A3EEB2E001900D928A95E1F779
:1047300026960FB6F894DEBF0FBECDBFDF91CF91A6
:104740001F910F91FF90EF900895E3EEF2E086E065
:10475000DF011D928A95E9F71092E1021092E002C2
:104760001092E2020895809109030895CF93DF9398
:1047700000D01F92CDB7DEB790915F03943019F54A
:1047800089837B836A8382E08093E9008FEF909135
:10479000E800815095FD06C095ED9A95F1F700006F
:1047A0008111F5CF8091E80085FF0DC040E050E019
:1047B00063E070E0CE0101960E94E1258091E8005F
:1047C0008E778093E8000F900F900F90DF91CF913C
:1047D0000895BC0184E00C94B623BC0183E00C94E2
:1047E000B62322E02093E9002FEF3091E80021501A
:1047F00035FD06C035ED3A95F1F700002111F5CFF2
:104800002091E80025FF0BC040E050E066E070E03A
:104810000E94E1258091E8008E778093E80008955A
:10482000CF93DF9320912B01222339F0209159035C
:1048300027FF03C060E222E002C068E021E020938D
:10484000E9002FEF3091E800215035FD06C035ED2D
:104850003A95F1F700002111F5CF2091E80025FFEE
:104860001DC0EC0180912B01811105C040E050E09A
:1048700068E070E003C070E040E050E0CE010E94CC
:10488000E1258091E8008E778093E80080E2FE01C8
:10489000A9EEB2E001900D928A95E1F7DF91CF91F8
:1048A000089580915E03811109C00E9472270E94C1
:1048B000CF278091E20084608093E20008951092F7
:1048C0005E030895089508950C942C2042E061EC55
:1048D00081E00E94EB2642E261EC82E00C94EB2640
:1048E00080916103833009F460C030F4813071F04D
:1048F000823009F499C008958A3009F485C08B305C
:1049000009F46BC0893009F0A7C020C08091600312
:10491000813A09F0A1C08091E800877F8093E80088
:104920008091640390916503892B21F460E289EE04
:1049300092E003C060E080E090E070E00E942C26EE
:104940008091E8008B778093E80008958091600360
:10495000813209F081C080916403909165030297D0
:1049600008F07AC08091E800877F8093E80080910A
:10497000E80082FD05C080915F038111F8CF6CC013
:104980002091F3008091F20090E0922B029729F49D
:104990008091F1008B7F813021F48091F100809330
:1049A00009038091E8008B7753C080916003813ABE
:1049B00009F052C08091640390916503892B09F03E
:1049C0004BC08091E800877F8093E8008091E800E9
:1049D00080FFFCCF80912B0136C080916003813233
:1049E000D9F58091640390916503892BA9F5809195
:1049F000E800877F8093E8000E942027809162036F
:104A000080932B010C94E31780916003813221F590
:104A10008091E800877F8093E8000E9420278091A2
:104A2000630380930A03089580916003813AA1F49F
:104A30008091E800877F8093E8008091E80080FF04
:104A4000FCCF80910A038093F1008091E8008E777B
:104A50008093E8000C942027089584B7877F84BF53
:104A60000FB6F894A89580916000886180936000EB
:104A7000109260000FBE90E080E80FB6F89480932B
:104A80006100909361000FBE0E9448130E9472273C
:104A90000E94CF278091E20084608093E2007894A6
:104AA0000E94642A0E944E1381E291E00E94CB1280
:104AB00080915F03853069F40E94F91F80915D0346
:104AC0008823B1F30E94E01F882391F30E94CB2535
:104AD000EFCF0E945A130E943C130E943B13E8CF71
:104AE0000C947225292F332723303105C9F060F447
:104AF0002130310581F02230310509F044C08BE3CB
:104B000090E020E235E043C021323105E1F022326D
:104B1000310549F138C082E190E02BE535E037C03E
:104B200099278130910549F028F0029761F5E0E07E
:104B3000F5E005C0ECE1F5E002C0E0E1F5E08491CC
:104B400090E09F0124C06115710541F0613071054D
:104B5000D1F489E090E02BE435E019C089E090E0E1
:104B600022E335E014C06115710541F06130710533
:104B700051F48CEB90E02DE635E009C080E490E044
:104B800029E236E004C080E090E020E030E0FA0165
:104B900031832083089580E189BD82E189BD09B414
:104BA00000FEFDCF8091D8008F7D8093D80080914A
:104BB000E00082608093E0008091E00081FDFCCF06
:104BC0000895CF92DF92EF92FF920F931F93CF93AE
:104BD000DF93EC018B017A010E943F27811133C0E2
:104BE000E114F10439F0F70180819181081B190B60
:104BF000C80FD91FC12CD12C0115110519F18091B5
:104C0000E80085FD16C08091E8008E778093E8006B
:104C1000E114F10449F0F70180819181C80ED91E99
:104C2000D182C08285E00FC00E943F27882321F3F4
:104C30000AC089918093F10001501109FFEFCF1A4A
:104C4000DF0ADACF80E0DF91CF911F910F91FF90C3
:104C5000EF90DF90CF900895209166033091670325
:104C60002617370748F06115710539F42091E800DF
:104C70002E772093E80001C0B901FC0120E0611506
:104C8000710579F180915F038823F1F18530F1F1AD
:104C90008091E80083FD3CC08091E80082FD2EC039
:104CA0008091E80080FFEBCF2091F3008091F2002B
:104CB00090E0922B6115710551F08830910538F420
:104CC00021912093F100615071090196F3CF21E009
:104CD000089709F020E08091E8008E778093E80043
:104CE000CECF2111CFCF0AC080915F03882361F01E
:104CF000853061F08091E80083FD0AC08091E80072
:104D000082FFF2CF80E0089582E0089583E0089565
:104D100081E00895209166033091670326173707D5
:104D200048F06115710539F42091E8002E77209341
:104D3000E80001C0B901FC0120E06115710591F1A5
:104D400080915F03882309F440C0853009F43FC097
:104D50008091E80083FD3DC08091E80082FD2FC076
:104D60008091E80080FFE9CF2091F3008091F2006C
:104D700090E0922B6115710559F08830910540F44F
:104D800024912093F1003196615071090196F2CF80
:104D900021E0089709F020E08091E8008E77809369
:104DA000E800CBCF2111CCCF0AC080915F038823CC
:104DB00061F0853061F08091E80083FD0AC0809148
:104DC000E80082FFF2CF80E0089582E0089583E05A
:104DD000089581E00895982F973068F59093E90041
:104DE000981739F07091EC002091ED005091F0008F
:104DF00003C0242F762F50E021FD02C09F5FECCF2F
:104E00003091EB003E7F3093EB003091ED003D7F21
:104E10003093ED003091EB0031603093EB007093F4
:104E2000EC002093ED005093F0002091EE0027FD60
:104E3000E5CF80E008958F708093E90081E00895C8
:104E40008091600387FF11C08091E80082FD05C05A
:104E500080915F038111F8CF11C08091E8008B77BA
:104E60000BC080915F03882349F08091E80080FFA8
:104E7000F8CF8091E8008E778093E8000895209124
:104E8000E4003091E50095E64091EC00842F8170BC
:104E900040FF23C08091E80080FD1DC080915F032A
:104EA000882399F0853099F08091EB0085FD11C041
:104EB0004091E4005091E5002417350729F3915003
:104EC00011F09A01E1CF84E0089582E0089583E033
:104ED000089581E0089580E008954091E80042FF40
:104EE000DDCF08950E94E0270E94E827E0EEF0E081
:104EF000808181608083E8EDF0E080818F7780831E
:104F000019BCA7EDB0E08C918E7F8C9380818F7E51
:104F1000808310925E0308950F931F93CF93DF93C6
:104F20000E94E0270E94E827C8EDD0E088818F77B3
:104F3000888388818068888388818F7D888319BC75
:104F400010925F0310925B0310925D0310925C035A
:104F500000EE10E0F80180818B7F80838881816082
:104F6000888342E060E080E00E94EB26E1EEF0E022
:104F700080818E7F8083E2EEF0E08081816080839B
:104F8000808188608083F80180818E7F8083888122
:104F900080618883DF91CF911F910F910895E8ED93
:104FA000F0E080818F7E8083E7EDF0E0808181609A
:104FB000808384E082BF81E080935E030C948C2721
:104FC000E8EDF0E080818E7F80831092E20008950A
:104FD0001092DA001092E10008951F920F920FB61E
:104FE0000F9211242F933F934F935F936F937F936F
:104FF0008F939F93AF93BF93EF93FF938091E100C3
:1050000082FF0BC08091E20082FF07C08091E10027
:105010008B7F8093E1000E94632A8091DA0080FFF9
:105020001FC08091D80080FF1BC08091DA008E7F66
:105030008093DA008091D90080FF0DC080E189BDA6
:1050400082E189BD09B400FEFDCF81E080935F035A
:105050000E94512405C019BC10925F030E945F2476
:105060008091E10080FF19C08091E20080FF15C0AF
:105070008091E2008E7F8093E2008091E200806167
:105080008093E2008091D80080628093D80019BCA0
:1050900085E080935F030E9463248091E10084FF98
:1050A00030C08091E20084FF2CC080E189BD82E1A4
:1050B00089BD09B400FEFDCF8091D8008F7D80931B
:1050C000D8008091E1008F7E8093E1008091E20022
:1050D0008F7E8093E2008091E20081608093E20005
:1050E00080915B03882311F084E007C08091E30086
:1050F00087FD02C081E001C083E080935F030E94CE
:1051000064248091E10083FF29C08091E20083FF45
:1051100025C08091E100877F8093E10082E0809349
:105120005F0310925B038091E1008E7F8093E1002A
:105130008091E2008E7F8093E2008091E2008061A6
:105140008093E20042E060E080E00E94EB268091E4
:10515000F00088608093F0000E946224FF91EF913C
:10516000BF91AF919F918F917F916F915F914F917F
:105170003F912F910F900FBE0F901F9018951F9287
:105180000F920FB60F9211242F933F934F935F937B
:105190006F937F938F939F93AF93BF93CF93DF933F
:1051A000EF93FF93C091E900CF708091EC00D82F6E
:1051B000D17080FDD0E81092E9008091F000877FE7
:1051C0008093F00078940E9403291092E900809166
:1051D000F00088608093F000CD2BCF70C093E90081
:1051E000FF91EF91DF91CF91BF91AF919F918F91FF
:1051F0007F916F915F914F913F912F910F900FBED3
:105200000F901F9018951F93CF93DF93CDB7DEB704
:10521000AA970FB6F894DEBF0FBECDBFE0E6F3E06D
:105220008091F100819323E0E836F207C9F70E94EC
:1052300070248091E80083FF2EC1809160039091DB
:105240006103492F50E04A30510508F024C1FA01AA
:10525000E857FF4F0C94E52A803821F0823809F096
:105260001AC108C080915C0390915D03992389F075
:1052700082600FC0809164038F70873008F00BC18B
:105280008093E9008091EB0085FB882780F91092DC
:10529000E9009091E800977F9093E8008093F100F7
:1052A0001092F100D1C0282F2D7F09F0F4C088237F
:1052B00019F0823061F0EFC080916203813009F013
:1052C000EAC0933009F080E080935D032EC08091A6
:1052D000620381112AC0809164038F702FEF280F21
:1052E000263008F0D8C08093E9002091EB0020FF21
:1052F0001CC0933021F48091EB00806214C0909127
:10530000EB0090619093EB0021E030E0A90102C036
:10531000440F551F8A95E2F74093EA001092EA0085
:105320008091EB0088608093EB001092E9008091FF
:10533000E800877F8093E8000E942027ACC081119D
:10534000AAC0109162031F778091E3008078812BBF
:105350008093E3008091E800877F8093E8000E94BB
:1053600020278091E80080FFFCCF8091E3008068D7
:105370008093E300111102C082E001C083E08093BA
:105380005F0389C08058823008F085C08091620335
:10539000909163038C3D53E0950779F583E08A8310
:1053A0008AE289834FB7F894DE01139620E03EE04D
:1053B00051E2E32FF0E050935700E49120FF03C047
:1053C000E295EF703F5FEF708E2F90E0EA3010F0C3
:1053D000C79601C0C0968D939D932F5F243149F7E6
:1053E0004FBF8091E800877F8093E8006AE270E019
:1053F000CE0101960E942C2616C060916403709124
:105400006503AE014F5F5F4F0E947025BC01892B81
:1054100009F441C09091E800977F9093E80089815A
:105420009A810E948A268091E8008B778093E80019
:1054300032C0803881F58091E800877F8093E80052
:1054400080915B038093F1008091E8008E7772CFAA
:10545000811121C080916203909163039927029783
:10546000D4F48091E800877F8093E8008091620304
:1054700080935B030E94202780915B03811106C00B
:105480008091E30087FD02C081E001C084E0809349
:105490005F030E9466248091E80083FF0AC0809128
:1054A000E800877F8093E8008091EB008062809322
:1054B000EB00AA960FB6F894DEBF0FBECDBFDF910A
:1054C000CF911F9108950895CF9380915F03882312
:1054D000A1F0C091E900CF709091EC00892F81700C
:1054E00090FD80E8C82B1092E9008091E80083FDD0
:1054F0000E940329CF70C093E900CF910895DB018A
:105500008F939F930E94092BBF91AF91A29F800D13
:10551000911DA39F900DB29F900D11240895991B8A
:1055200079E004C0991F961708F0961B881F7A959A
:10553000C9F780950895AA1BBB1B51E107C0AA1F9C
:10554000BB1FA617B70710F0A61BB70B881F991F24
:105550005A95A9F780959095BC01CD01089597FBC8
:10556000072E16F4009407D077FD09D00E949B2ADD
:1055700007FC05D03EF4909581959F4F0895709556
:1055800061957F4F0895A1E21A2EAA1BBB1BFD0156
:105590000DC0AA1FBB1FEE1FFF1FA217B307E40712
:1055A000F50720F0A21BB30BE40BF50B661F771F6A
:1055B000881F991F1A9469F760957095809590954A
:1055C0009B01AC01BD01CF010895EE0FFF1F0590B7
:1055D000F491E02D09940E94F32A332312F48A1BDC
:1055E0009B0B0C94042BA29FB001B39FC001A39FFF
:1055F000700D811D1124911DB29F700D811D11240C
:10560000911D08950E94F32AB7FF0895821B930B02
:1056100008950E94F32AA59F900DB49F900DA49F1A
:10562000800D911D11240895B7FF0C94092B0E9441
:10563000092B821B930B08958F929F92AF92BF927A
:10564000CF92DF92EF92FF92CF93DF93EC016881CC
:1056500079818A819B81611571058105910521F40C
:1056600064E279ED8BE597E02DE133EF41E050E026
:105670000E94CD2B49015A019B01AC01A7EAB1E47C
:105680000E94092B6B017C01ACEEB4EFA5019401E3
:105690000E94172BDC01CB018C0D9D1DAE1DBF1D83
:1056A000B7FF03C00197A109B04888839983AA83F3
:1056B000BB839F77DF91CF91FF90EF90DF90CF90EA
:1056C000BF90AF909F908F9008950E941C2B0895DB
:1056D00080E091E00E941C2B0895A0E0B0E0809350
:1056E000000190930101A0930201B093030108957A
:1056F000FC014150504030F001900616D1F731972F
:10570000CF010895882799270895F999FECF92BD72
:1057100081BDF89A992780B50895A6E1B0E044E0EC
:1057200050E00C94BF2BA8E1B0E042E050E00C94B4
:10573000BF2B262FF999FECF92BD81BDF89A019714
:1057400000B4021639F01FBA20BD0FB6F894FA9AC9
:10575000F99A0FBE08950396272F0E949A2B0E9454
:10576000992B252F0E949A2B242F0C949A2B01966B
:10577000272F0E949A2B0C94992BDC01CB01FC0162
:10578000F999FECF06C0F2BDE1BDF89A319600B49A
:105790000D9241505040B8F70895052E97FB1EF426
:1057A00000940E94E42B57FD07D00E94C32A07FCF7
:1057B00003D04EF40C94E42B5095409530952195F0
:1057C0003F4F4F4F5F4F089590958095709561952D
:0C57D0007F4F8F4F9F4F0895F894FFCF3C
:1057DC0001000000010102001000101001191A1B39
:1057EC001C1D1E1F202122B7022808641E140A3219
:1057FC001EB3231024F123ED23E92301E200E90079
:10580C00EA00B500B600B700CD008301CC008A01D8
:10581C00920194012102230224022502260227026E
:10582C002A02B300B4006F007000818283F0F1C6CD
:10583C006766369431F7353497963332909192935C
:10584C009500010202020206060609090909090966
:10585C000F0F0F0F0F0F15151518191919191919F5
:10586C00191919192324252525252525E200E900D8
:10587C00EA00B500B600B700CD008301CC008A0168
:10588C0092019401210223022402250226022702FE
:0E589C002A02B300B4006F0070008182830006
:00000001FF
