:100000000C9438030C947F030C947F030C947F03AF
:100010000C947F030C947F030C947F030C947F0358
:100020000C947F030C947F030C9466290C94382A5B
:100030000C9455200C947F030C947F030C947F0345
:100040000C947F030C947F030C947F030C947F0328
:100050000C947F030C94A2200C947F030C947F03D8
:100060000C947F030C947F030C947F030C947F0308
:100070000C947F030C947F030C947F030C947F03F8
:100080000C947F030C947F030C947F030C947F03E8
:100090000C947F030C947F030C947F030C947F03D8
:1000A0000C947F030C947F030C947F03A40EA70E83
:1000B000AF0EB40EB90EBE0EC30EC80ECD0ED20ECC
:1000C000D70EDC0EDE0EE10EE40EE70EEA0EED0EAC
:1000D000EF0EF40EB415B415E615E61533165116E9
:1000E000721772175C16F116021702176217721751
:1000F00072176B1712181218241824181B182418BA
:10010000241824181218121820182418241820183B
:10011000A52ACC2AC42BCC2AC42B182B3B2BC42BAE
:10012000922BA12B165C1E001F0020002100220034
:10013000230024002500260027002D002E000000AB
:100140002A002B0014001A000800150017001C00DC
:1001500018000C00120013002F00300031000000C6
:10016000390004001600070009000A000B000D000A
:100170000E000F0033003400000028000000E100F2
:1001800000001D001B0006001900050011001000F2
:100190003600370038000000E5000000E000E30012
:1001A000E20000000000000000002C0000000051F0
:1001B0001150000012500000000035003A003B00D2
:1001C0003C003D003E003F00400041004200430033
:1001D0004400450000002A0000000000520000001A
:1001E000C35CC95CCB5CC55CC05CBE5CA800AC00F9
:1001F000AB00AE000000C25C500051004F00C45C78
:10020000CA5CCC5CC65CC15CBD5CAA00A9000000F5
:1002100028000000BF5C0000CD5CCE5CCF5CD05CF1
:10022000D15CD25CD35CD45CD55C00000000E500FE
:100230000000E000E300E200000000000000000019
:10024000000000001050010000000000E400000069
:10025000005C000000000000000000000000000042
:10026000000000000000000000000000000000008E
:10027000000000000000000000000000000000007E
:10028000000000000000000000000000000000006E
:10029000000000000000000000000000000000005E
:1002A000000000000000000000000000000000004E
:1002B000000000000000000000000000000000003E
:1002C000000000000000000000000000000000002E
:1002D00000000000000000000000105000000000BE
:1002E00001000000000032190A00047F3F1F643241
:1002F00014643214783C1E1E140A05222325262875
:10030000292A2C2D2F3032333536383A3B3D3E40AA
:1003100042434547494A4C4E5051535557595A5CF0
:100320005E6062646668696B6D6F71737577797B07
:100330007D7F81838587898A8C8E90929496989A06
:100340009C9E9FA1A3A5A7A8AAACAEAFB1B3B4B61B
:10035000B8B9BBBCBEBFC1C2C3C5C6C7C9CACBCC76
:10036000CDCED0D1D2D2D3D4D5D6D7D7D8D9D9DA49
:10037000DADBDBDBDCDCDCDCDCDDDDDDDDDCDCDCBE
:10038000DCDCDBDBDBDADAD9D9D8D7D7D6D5D4D3E6
:10039000D2D2D1D0CECDCCCBCAC9C7C6C5C3C2C1BB
:1003A000BFBEBCBBB9B8B6B4B3B1AFAEACAAA8A718
:1003B000A5A3A19F9E9C9A98969492908E8C8A89D0
:1003C000878583817F7D7B79777573716F6D6B69AD
:1003D00068666462605E5C5A5957555351504E4C82
:1003E0004A4947454342403E3D3B3A383635333231
:1003F000302F2D2C2A292826252322FFAA7F55407D
:1004000000010101010101010101020202020202D7
:1004100002020203030303030303030404040404AA
:100420000404050505050506060606060707070771
:100430000708080808090909090A0A0A0B0B0B0C26
:100440000C0C0D0D0D0E0E0E0F0F0F1010111111C3
:100450001212131314141515161617171818191944
:100460001A1A1B1B1C1D1D1E1E1F202021222223A9
:100470002424252626272829292A2B2C2D2D2E2FEA
:1004800030313232333435363738393A3B3C3D3E01
:100490003F404142434445464748494A4C4D4E4FF0
:1004A00050515354555658595A5B5D5E5F616264B2
:1004B000656668696B6C6D6F7072737577787A7B3F
:1004C0007D7E8082838587888A8C8E8F9193959696
:1004D000989A9C9EA0A2A3A5A7A9ABADAFB1B3B5B6
:1004E000B7BABCBEC0C2C4C6C9CBCDCFD1D4D6D892
:1004F000DBDDDFE2E4E7E9EBEEF0F3F5F8FAFDFF30
:100500000403300000000E035900440036003000A0
:100510004D00510000000A0359004D0044004B00FB
:1005200000000403090409023B00020100A0FA09CB
:100530000400000103010100092111010001224012
:10054000000705810308000A0904010001030000F7
:100550000009211101000122BC00070582032000CF
:100560000A1201100100000008EDFE6060020001A7
:1005700002030105010902A10185020901A100058B
:1005800009190129051500250195057501810295B7
:1005900001750381010501093009311581257F9518
:1005A000027508810609381581257F950175088136
:1005B00006050C0A38021581257F9501750881060C
:1005C000C0C005010980A101850319012AB70015E2
:1005D0000126B700950175108100C0050C0901A125
:1005E00001850419012AA002150126A002950175B2
:1005F000108100C005010906A1018505050719E064
:1006000029E71500250195087501810205071900E4
:1006100029EF1500250195F07501810205081901E2
:100620002905950575019102950175039101C00594
:10063000010906A101050719E029E7150025019523
:1006400008750181029501750881010507190029C6
:10065000FF150026FF0095067508810005081901A1
:100660002905950575019102950175039101C00059
:1006700011241FBECFEFDAE0DEBFCDBF04B603FE0C
:1006800027C08091680390916903A0916A03B0919B
:100690006B038730904BA740B04BD1F410926803A6
:1006A0001092690310926A0310926B0314BE84B710
:1006B000877F84BF0FB6F894A89580916000886109
:1006C00080936000109260000FBEE0E0F8E30995AF
:1006D00011E0A0E0B1E0EEECFAE502C005900D9269
:1006E000AE3CB107D9F723E0AEECB1E001C01D92FA
:1006F000A836B207E1F70E94A4260C94652D0C944D
:100700000000849A8C9A0895CF93C82F0E94F0031A
:10071000882329F0C1FD02C08C9A01C08C98CF912A
:10072000089581E0089581E008950C94930308955D
:100730000C9497031F93CF93DF9300D000D01F92A8
:10074000CDB7DEB749835A836B83309142028981EA
:100750009A81311114C0662359F0222349F00E9476
:100760004E1D182F682F89819A810E94F71C03C0A3
:100770000E94221D182F69817A81812F04C00E9456
:100780004E1D69817A810F900F900F900F900F90FE
:10079000DF91CF911F910C945804FC01262F4081CA
:1007A00051816281738184810C949A03CF93DF938A
:1007B000EC0160E00E94CD03BE01DF91CF910C946B
:1007C00098030E94801E811102C00E94331F0E9464
:1007D0006F100C9481030C94730608950C94ED0330
:1007E00081E00895CF93C82F0E94EE038C2F0E94C2
:1007F0008403CF91089508950E9400180E94FB037E
:100800002FEF84E39CE0215080409040E1F700C04E
:1008100000000C94C8200F931F93CF93DF93EC013B
:1008200061E00E94CD038C01BE010E9495038823E4
:10083000A9F1BE01C8010E94D80F882379F1BE0139
:10084000C8010E944211882349F1BE01C8010E94DB
:100850009411882319F1BE01C8010E94BF12882398
:10086000E9F0BE01C8010E948D0E8823B9F08A818B
:10087000882369F001158CE5180731F00E3D1C4501
:1008800031F40E94331F0AC00E94FC0307C0CE014E
:10089000DF91CF911F910F910C94910380E0DF9134
:1008A000CF911F910F91089580E090E008950895F1
:1008B0002BE4829FC0011124FC012FE0729FE00D08
:1008C000F11D1124E60FF11DEE0FFF1FEC5DFE4F31
:1008D000859194910895880F991FFC01EA51FD4F6D
:1008E000859194910895CF93DF930E9458040E94BC
:1008F0008B05EC018115904508F041C0C11580E4DD
:10090000D80708F0D1C0C83ED10510F5C03ED105CA
:1009100008F0FDC0C83AD10578F4C53AD10508F011
:10092000A2C0C130D10509F4F2C008F4EEC0C43051
:10093000D10508F0ECC0E9C0CF3BD10508F49BC05D
:10094000C03CD10508F4E1C0CE01805C91099EC095
:10095000C11590E2D90758F4C11521E0D20708F07B
:10096000D6C0C03FD10508F4D0C0D065D0C0C115F5
:1009700080E3D80708F08EC0CE019F7087C0C115F4
:1009800095E5D90708F043C0C11524E5D20708F062
:10099000A2C0C11582E5D80708F5C11591E5D907B0
:1009A00008F085C0CE0174E0969587957A95E1F7B9
:1009B00083709C2F937021E030E002C0220F331F20
:1009C0009A95E2F73C68382BCF70C695C69580E2C1
:1009D000C89FE0011124C22BD32B99C09E01237024
:1009E00033278C2F86958695C115D34508F064C0B2
:1009F000C1E0D0E002C0CC0FDD1F2A95E2F720E273
:100A0000829FC0011124C82BD92BDC6880C0C1157E
:100A100029E5D207A0F4C11588E5D80708F060C021
:100A2000C11596E5D90708F070C08C2F0E941F06EB
:100A30008F71C82FD0E0DC2FCC27D06268C0C115E1
:100A40002AE5D20708F451C0CE0190568115904294
:100A500008F05BC08D2F8F710E941F06DD27D062CA
:100A60008F71D82B54C0C55AD0E0C65ADE4FC8810A
:100A7000D0E0D0644CC0C85AD0E0CC0FDD1FC45DBC
:100A8000DE4F0990D881C02DD46441C00E946B0410
:100A9000EC013DC0CE019927D3FF03C0EC01D86C17
:100AA00036C0EC01D06C33C0DF70D06A30C0DC2FB0
:100AB000CC27C16FD06A2BC0C1E0D0E002C0CC0F00
:100AC000DD1F2A95E2F720E2829FC0011124C82B86
:100AD000D92BDA681CC0DC2FCC27C46FD06A17C0B2
:100AE000DC2FCC27C06FD06A12C08C2F8F700E9471
:100AF0001F0694E0D695C7959A95E1F7CF70D0E0A0
:100B0000DC2FCC27D069C82B02C0C0E0D0E0CE01DA
:100B1000DF91CF9108958238910569F1B0F4813366
:100B2000910509F46DC048F48932910509F463C058
:100B30008A32910509F469C008958533910509F455
:100B400055C089339105B9F00895833E910569F147
:100B500038F4803E9105B1F0823E910509F1089587
:100B6000863E9105A9F1873E9105B9F1843E910534
:100B700009F064C023C02091590320FD4FC021FD1E
:100B80004DC008958091590380FD44C080915A035F
:100B900080FF44C08091590384FD42C083EE4DC064
:100BA0008091590382FF38C0F5CF8091590382FDAF
:100BB00033C080915A0380FD31C0ECCF80915A033D
:100BC00081FF32C08091590384FD2AC087EE35C071
:100BD0008091590383FF26C0F5CF8091590383FD8F
:100BE00021C080915A0381FD1FC0ECCF8091590331
:100BF00085FD1CC01DC08091590385FD19C016C01C
:100C00008091590386FD16C017C08091590386FD57
:100C100013C010C089E311C082EE0FC080EE0DC07A
:100C200080E00BC086EE09C084EE07C089E205C0F3
:100C300085E303C08AE201C081E390E008959091CA
:100C4000590392FF0DC0282F2871283019F4877F8F
:100C5000846006C0282F2471243011F48B7F8860B3
:100C600093FF0DC0282F2871283119F4877E8461E5
:100C700006C0282F2471243111F48B7E88612091C5
:100C80005A0320FF0DC0382F3871383019F4877F90
:100C9000816006C0382F3171313011F48E7F886049
:100CA00021FF0DC0282F2871283119F4877E81611A
:100CB00006C0282F2171213111F48E7E886194FDA8
:100CC000877E0895E82FF0E0EE0FFF1FEB5EFC4FEC
:100CD000808191810895089580EA8A95F1F70895B9
:100CE00008950C9470060C947106CF93DF93ACE6D4
:100CF000B1E041E751E061E070E08D91E82FE295CD
:100D0000EF70F0E021A18F70EB0102C0CC0FDD1F6E
:100D10008A95E2F7CE019C2F9095922391A392A100
:100D2000892B82A34A175B0741F7ADE5B1E04CE69A
:100D300051E061E070E08D91E82FE295EF70F0E016
:100D400021A18F70EB0102C0CC0FDD1F8A95E2F765
:100D5000CE019C2F9095922391A392A1892B82A3DF
:100D60004A175B0741F7EBE0F3E0A5E1B3E085E16B
:100D700093E0119211921D921D928E179F07C9F751
:100D800085E00E945407DF91CF910C94E1036F92AC
:100D90007F928F929F92AF92BF92CF92DF92EF920B
:100DA000FF920F931F93CF93DF938CE6C82E81E0C1
:100DB000D82E0BE013E095E1A92E93E0B92E712C0B
:100DC00088248394912CF60181916F01C82FC295DC
:100DD000CF70D0E099A18F70740101C0EE0C8A959C
:100DE000EAF7892F8E2989A38AA16E2C6094862127
:100DF0008AA30E946C06EDE5F1E040E050E020E0BF
:100E000030E06191A62FA295AF70B0E090968C91E2
:100E100090E06F7002C0959587956A95E2F780FD26
:100E200008C0C401042E02C0880F991F0A94E2F77B
:100E300002C080E090E0282B392B4F5F5F4F4F308E
:100E40005105F9F689A1682269A28AA1E82AEAA2D5
:100E5000F801808191812817390721F0318320839F
:100E600081E001C080E0782A0E5F1F4FA016B10616
:100E700009F0A9CF272D45E065E173E08BE093E011
:100E80000E9455070E94EB03872DDF91CF911F91A0
:100E90000F91FF90EF90DF90CF90BF90AF909F9019
:100EA0008F907F906F9008950895FF920F931F93F6
:100EB000CF93DF93F82E092F162FD72FC42F22237D
:100EC00049F081E08093D0010E9487209093CF0168
:100ED0008093CE018091D0018823D9F08091CE01FA
:100EE0009091CF010E949320069798F0EF2DF02F5C
:100EF000A12FBD2F80E090E04C2F50E08417950784
:100F000034F4219131912D933D930196F7CF1092B6
:100F1000D001DF91CF911F910F91FF900895EF9233
:100F2000FF920F931F93CF93DF938B01682F1111C3
:100F30000AC0442329F0E82FF0E0E050FC4F649110
:100F4000762F862F75C0212F30E0E82FF0E0442364
:100F500021F0E050FC4FE491F0E046E0049FC00136
:100F60001124CFEFD0E0BE010E94142C4BEA4603BF
:100F7000C001479F900D1124800F911D800F911D7E
:100F8000982F990F890FAE01421B530B4E9FD00132
:100F90004F9FB00D5E9FB00D11249B2F189FA00195
:100FA0001124452F55278E01041B150B0E9FA00100
:100FB0000F9F500D1E9F500D11247E01E81AF1085D
:100FC000E29E8001E39E100DF29E100D1124212F50
:100FD0003327C21BD30BCE9F9001CF9F300DDE9FD6
:100FE000300D112462307105A9F048F461157105C6
:100FF00069F061307105C9F48B2F752F0DC0643015
:10100000710581F058F06630710579F47E2F8B2FD1
:10101000932F0DC0832F7B2F9E2F09C08E2F7B2FE8
:10102000952F05C08E2F732F02C07E2F852F692F1D
:10103000DF91CF911F910F91FF90EF90089541E0C4
:101040000E948F0708950895CF93DF93762FE901CB
:10105000682F842F0E941F08798368838A83DF9119
:10106000CF91089580911F03282F269530E02115F8
:10107000310519F48170826005C02B32310524F0EE
:101080008170846580931F03089588E090E00C943C
:10109000062DCF92DF92EF92FF926B017C010E94AE
:1010A0003208B701A60188E090E0FF90EF90DF9052
:1010B000CF900C94242DEFE1F3E083E08083118244
:1010C0008FEF828383831482608171818281938117
:1010D0000C94490880911F0380FF02C086950895F3
:1010E00080E0089590912303933018F49F5F9093CC
:1010F0002303882351F060911F0370912003809196
:101100002103909122030C944908089581E00C94E6
:10111000720890912303992319F09150909323031F
:10112000882351F060911F03709120038091210367
:10113000909122030C944908089581E00C94890849
:1011400070E00C947F106091080180911F0380FF74
:101150000AC08091070123E0829FC00111248C5DA9
:101160009C4F0C94A0088091090190910A01891765
:1011700080F7E82FF0E09F01220F331FE20FF31FEB
:10118000EC5DFC4F1182108212828F5FF0CF909144
:101190001F0390FF16C09091090120910A01921738
:1011A00070F4E92FF0E0DF01AA0FBB1FEA0FFB1F6D
:1011B000EC5DFC4F8183608342839F5FF0CF0C9492
:1011C000A3080895CF93DF9300D01F92CDB7DEB769
:1011D00090911F0390FF0AC09E012F5F3F4F0E9416
:1011E00024084B8169818A810E94C7080F900F9063
:1011F0000F90DF91CF910895CF93DF93EC01EC81B5
:10120000F0E0E550FD4F4491EFE1F3E06281818130
:101210000E94E2088C818F5F8C83DF91CF910895CB
:10122000CF93DF93EC01EFE1F3E0438162818C81A6
:101230000E94E2088C818F5F8C83DF91CF910895AB
:101240000F931F93CF93DF9300D01F92CDB7DEB7DC
:101250008C018091D10181110AC09E012F5F3F4F07
:101260004FEF6FEF0E9424088A818093D101F8012B
:101270008481813051F028F0823061F44091D101B5
:101280000AC08091D10140E007C06091D10140E0E7
:1012900080E003C040E080E060E00E94C708F80101
:1012A000848190E0019663E070E00E94282C8483A2
:1012B0000F900F900F90DF91CF911F910F91089594
:1012C000AF92BF92CF92DF92EF92FF920F931F9354
:1012D000CF93DF9300D01F92CDB7DEB7182FF62E35
:1012E000042FE22E90911F0390FF6DC0E92FE69529
:1012F000AE2FB0E0AF58BE4F8C9180932B029E7FF3
:10130000923061F49E012F5F3F4F812F0E9424088D
:101310004B8169818A810E94C70843C0823019F4D9
:10132000009122033EC0863019F41091200339C089
:101330008930D9F38931A9F5E9518E2F8170D82EE2
:10134000E695F0E0E550FC4FA590B490C12CBB248D
:1013500060910B01C61618F52C2D30E0A29EC0013D
:10136000A39E900DB29E900D112470E00E94142C4B
:10137000812FD11002C0860F01C0861B90910901F8
:10138000290F311DA901440F551F240F351F2C5D56
:101390003C4F402F6F2D0E942408C394D9CF0E9448
:1013A000A30810932003F092210300932203EE2060
:1013B00051F060911F03709120038091210390915F
:1013C00022030E9449080F900F900F90DF91CF9158
:1013D0001F910F91FF90EF90DF90CF90BF90AF9053
:1013E0000895EFE1F3E09181282F4381628188E045
:1013F000890F0C94600981E00C94F109EFE1F3E0AE
:101400009181282F4381628188EF890F0C946009B4
:1014100081E00C94FE09EFE1F3E0628128E0620FC5
:1014200008F46FEF282F438181810C94600981E0DB
:101430000C940B0AEFE1F3E0628128E0621B08F4F0
:1014400060E0282F438181810C94600981E00C9435
:101450001A0AEFE1F3E0438128E0420F08F44FEF6E
:10146000282F628181810C94600981E00C94290A03
:10147000EFE1F3E0438128E0421B08F440E0282F2D
:10148000628181810C94600981E00C94380A20E02B
:101490000C946009FF920F931F93CF93DF93EC019D
:1014A000F12C0FEF10E060910B01F616F0F4809133
:1014B00009012F2D30E0280F311DC901880F991F18
:1014C000280F391F2C5D3C4F70E0C8010E94282C6A
:1014D000962F8C814091220360912103F99E800D0B
:1014E00011240E942408F394DECF0E94A3089A815D
:1014F0008C8190FF02C08F5F01C081508C83DF918F
:10150000CF911F910F91FF900895BF92CF92DF92DC
:10151000EF92FF920F931F93CF93DF93FC01828191
:1015200080FF02C00FEF01C001E010E080910B01CD
:10153000181708F040C080910901C12ED12CE60196
:10154000C80FD11DCE01880F991FC80FD91FCC5DC0
:10155000DC4F198218821A8234E0E32EF12CB12C70
:101560008091D3018B0D813114F08F7005C087FFFE
:1015700003C090910B01890F082E000C990BC8161F
:10158000D90691F4809122038E9DA0018F9D500D6C
:10159000112455954795559547959E0160912103D6
:1015A000809120030E942408B00EF1E0EF1AF108A8
:1015B000B9F61F5FBBCF0E94A3088091D301013011
:1015C00031F4811102C080910B01815007C090E07D
:1015D000019660910B0170E00E94282C8093D3014A
:1015E000DF91CF911F910F91FF90EF90DF90CF90FF
:1015F000BF900895CF938091090190910A018917B6
:1016000070F4E82FF0E09F01220F331FE20FF31F69
:10161000EC5DFC4F1182108212828F5FF0CFC0E030
:1016200060910B01C617C0F5EC2FF0E070E0CF0120
:101630000E94282C20910901820F2091D201022EB4
:10164000000C330B90E0E217F307CCF02091060179
:10165000022E000C330B2E173F078CF09C01220F3B
:10166000331F820F931F9C012C5D3C4F409122033E
:1016700060912103809120030E9424080BC0FC018B
:10168000EE0FFF1F8E0F9F1FFC01EC5DFC4F1182C0
:1016900010821282CF5FC4CF0E94A308209105015F
:1016A0008091D201820F8093D20190910601920F16
:1016B0009093060119165CF4082E000C990B4091CA
:1016C0000B0150E041505109841795071CF02195FA
:1016D00020930501CF9108958F929F92AF92BF9270
:1016E000CF92DF92EF92FF920F931F93CF93DF93EE
:1016F0008C01FC014481C42FD0E09E01DE010E94D8
:101700006C2C9B01AC010E94822C6B017C01E0E2FD
:10171000F0E0EC1BFD0BA5E5B0E09B01AC010E94E5
:10172000822C4B015C019F01DF010E94642C9B0114
:10173000AC010E948D2C9B01AC012C0D3D1D4E1D5A
:101740005F1DC501B4010E943C2CC22FD22F2A324A
:1017500028F4F3E02F9F900111240DC025E530E01F
:101760002C1B3109C901880F991F280F391F37FF1A
:1017700002C02F5F3F4F35952795C22FC095F12CA2
:1017800085E5E82EED1A80910B01F816C8F4F1FCFE
:1017900002C08E2D01C08D2F909109012F2D30E0B8
:1017A000290F311DA901440F551F240F351F2C5D32
:1017B0003C4F4C2F609121030E942408F394E3CF07
:1017C0000E94A308F8018481811102C091E003C046
:1017D000803219F49FEF9093040190910401890FD6
:1017E000F8018483DF91CF911F910F91FF90EF90CB
:1017F000DF90CF90BF90AF909F908F9008950F9300
:101800001F93CF93DF93EC0100E010E080910B0178
:10181000282F30E00217130724F590910901980151
:10182000290F311DA901440F551F240F351F2C5DB1
:101830003C4F869590E04C81081719071CF444230F
:1018400031F002C0411103C04091220301C040E0C9
:1018500060912103809120030E9424080F5F1F4F95
:10186000D5CF0E94A3088C8190E0019681709927C2
:101870008C83DF91CF911F910F9108958F929F924A
:10188000AF92BF92CF92DF92EF92FF920F931F938E
:10189000CF93DF93FC01B280948081E0848300E0E9
:1018A00015E05BE4A52E88248394EE24EA94F12CC1
:1018B0007BE4C72ED12C80910B01081708F08FC054
:1018C000C02FD0E01C9FF0011D9FF00D1124EC52A1
:1018D000FE4F911003C01382128267C0238122231E
:1018E00089F1215023833481332319F09A2D921BDF
:1018F00001C0922F809122031C9FF0011D9FF00DCB
:101900001124EC52FE4F899FC0011124B6010E94A0
:10191000142C6283211104C0332311F01482A3829A
:1019200022E02B1508F441C01C9FF0011D9FF00D13
:101930001124EC52FE4F809120038083809121037B
:10194000818333C00E94E12C8230914074F582E0A3
:101950008B1530F40E94E12CB7010E94282C02C0A4
:10196000809120031C9FF0011D9FF00D1124EC526B
:10197000FE4F808322E02B1558F40E94E12C209129
:1019800021032695622F70E00E94282C820F02C04E
:10199000809121031C9FF0011D9FF00D1124EC523A
:1019A000FE4F81831282A3828482809109019E016D
:1019B000280F311DC901880F991F280F391F2C5D71
:1019C0003C4F1C9FF0011D9FF00D1124EC52FE4F67
:1019D0004281618180810E9424080F5F6CCFDF917A
:1019E000CF911F910F91FF90EF90DF90CF90BF901C
:1019F000AF909F908F900C94A308EFE1F3E080816B
:101A00008E7F808360817181828193810E944908E9
:101A100010922C022FEF80E792E0215080409040FE
:101A2000E1F700C000000C94A30860911F036695C5
:101A300070E04BE050E08CE091E00E94F12C892BAB
:101A400019F481E080932C020E9487209093250254
:101A500080932402089590911F0390FF35C09170E8
:101A6000811102C0926006C08B3210F0946502C0F2
:101A7000880F982B90931F03662351F060911F03EA
:101A80007091200380912103909122030E944908C4
:101A900060911F03669570E04BE050E08CE091E0B0
:101AA0000E94F12C892B19F010922C0202C00E9486
:101AB000150D81E08093270240912203609121035C
:101AC000809120030C94470A0895682F90911F037A
:101AD000969581E0890F8B3208F081E00C942B0DF4
:101AE00081E00C94650D682F90911F0396958FEF00
:101AF000890F09F48AE20C942B0D81E00C94730D8C
:101B000061E00C942B0DEFE1F3E080818160808334
:101B100086950C94800D80911F0380FD0C94FD0C24
:101B20000C94830D60E00C942B0D80912A0281119E
:101B30002EC00E94801E811104C00E94331F0E948B
:101B40005B080E94450860931F03709320038093F5
:101B50002103909322036E7F61F40E945B080E9430
:101B6000450860931F037093200380932103909393
:101B700022030E94320810922C0280911F0380FFE2
:101B800003C086950E94920D81E080932A020895F9
:101B90000F931F93CF93DF9380912C02882309F436
:101BA0009CC080912B02E0911F03E695E81BE09317
:101BB0002602823049F4F0E0E950FD4FE491CE2F47
:101BC000D0E00CEF18E059C0863049F4F0E0EC505A
:101BD000FD4FE491CE2FD0E000E119E04EC08930F6
:101BE00051F4E695F0E0EF50FD4FE491CE2FD0E0B8
:101BF0000AE41AE042C08F3051F4E695F0E0E25179
:101C0000FD4FE491CE2FD0E005E81AE036C08531D3
:101C100049F4F0E0E551FD4FE491CE2FD0E00AEF1A
:101C20001AE02BC08831D9F0833239F4E9EEF2E0C2
:101C3000C591D49100E219E020C08432A9F0853228
:101C4000C1F48E2F63E00E94082CE92FF0E0EA51E6
:101C5000FD4FE491CE2FD0E00EE31CE00EC0C8E2B1
:101C6000D0E00CE61BE009C0C4EFD1E00FEF1BE0B1
:101C700004C0C0EDD7E003E218E08091270288237A
:101C800089F0109227020E9487209E0120953095AE
:101C9000820F931F909325028093240210922902B1
:101CA0001092280280912402909125020E94932094
:101CB0008C179D0790F0E0912402F0912502CE0F41
:101CC000DF1FD0932502C093240284E292E0F80142
:101CD000DF91CF911F910F910994DF91CF911F91C7
:101CE0000F910895882311F0FA0101C0FB010994B6
:101CF000CF93DF93C82FD62F0E946A088C1740F02D
:101D00000E946A088D1720F4DF91CF910C94700D1A
:101D10008C2FDF91CF910C94800D0F931F93CF9355
:101D2000FB01C281CC2309F463C08C010E94CF1D4A
:101D30008272F801E25CFC45E431F10508F059C01B
:101D4000EA5AFF4F0C945E2C0E948B0D06C04DE7A3
:101D50005DE060E77DE00E94720EC0E04AC040E7AF
:101D60005DE06DE77DE0F7CF48E05AE06BEF79E0AA
:101D7000F2CF4BEF59E068E07AE0EDCF46E25AE06F
:101D800067E17AE0E8CF47E15AE066E27AE0E3CF44
:101D900044E45AE065E37AE0DECF45E35AE064E4E8
:101DA0007AE0D9CF4DE958E066E878E0D4CF46E84C
:101DB00058E06DE978E0CFCF81E017C065E082E0C0
:101DC00010C068E086E00DC06EE089E00AC064E102
:101DD0008FE007C067E185E104C088E106C062E2E8
:101DE00089E10E94780EB9CF83E20E94800DB5CFC1
:101DF000C1E08C2FCF911F910F9108950E94801EFA
:101E0000811102C00E94331F0E94BB1E80935403A5
:101E1000282F26952695269530E02630310524F08A
:101E200087708862809354038091540380FF04C0BC
:101E300086958695869501C080E00C940D102091C2
:101E40005403822F869586958695482F50E045301D
:101E5000510554F48F5F982F990F990F990F822F86
:101E60008770892B80935403809154038160809301
:101E700054030E94BF1E80915403869586958695D3
:101E80000C940D1080915403982F969596959695E5
:101E9000A1F0915E990F990F990F8770892B80930C
:101EA0005403887F91E009F490E08091540390FB03
:101EB00080F9809354030E94BF1E8091540386953D
:101EC000869586950C940D108091540380FD13C067
:101ED000816080935403813019F489E08093540326
:101EE000809154030E94BF1E80915403869586956D
:101EF00086950C940D1008958091540380FF08C0BE
:101F00008E7F809354030E94BF1E80E00C940D10BE
:101F100008958091540380FD0C947C0F0C94640F01
:101F200090915403892F8695869586958F5F8F7142
:101F30009770863038F4880F880F880F892B80932C
:101F4000540302C09093540380915403887F91E01E
:101F500009F490E08091540390FB80F9809354033E
:101F60000E94BF1E809154038695869586950C9499
:101F70000D10863008F085E0909154039770282F5B
:101F8000220F220F220F922B90935403987F21E06F
:101F900009F420E09091540320FB90F990935403AE
:101FA0000C940D100E94B90F809154030C94BF1E25
:101FB0009C01FB018281882349F12D3BFCE53F0711
:101FC000C9F040F42B3BECE53E0769F02C3B3C4567
:101FD00061F008952F3B9CE5390791F070F0203CAB
:101FE0003C4589F0089585E001C080E00E94D20F51
:101FF00080E008950E94420FFBCF0E941F0FF8CF90
:102000000E94890FF5CF0E94900FF2CF81E00895D2
:10201000279A2F9808952F980895CF92DF92EF92E4
:10202000FF92CF93C82F863050F4811109C0809160
:102030008000877F809380000E940B1006C0C5E05F
:10204000809180008860809380002C2F30E0AFEF7B
:10205000BFEF0E946C2C25E030E040E050E00E9491
:102060003C2CC9012C3764E1360728F469E070E0A4
:102070000E94142C29C0DA01C9018A50974DAF4F34
:10208000BF4F6627782F892F9A2F25EF38E241E03E
:1020900050E00E943C2C69017A01CA01B9010E94FA
:1020A000F82B9B01AC01C701B6010E94F82BBB279E
:1020B000A92F982F872F009721E0A207B10511F0D3
:1020C000BC0102C06FEF7FEF70938D0060938C00B6
:1020D000CF91FF90EF90DF90CF90089508950E94E8
:1020E00008108AE08093800089E1809381008FEF5F
:1020F0009FEF90938700809386000C94FE0E6A9A5F
:102100002EB12B7F3EB134604FB7F894FC01CB0168
:10211000880F991F680F791F6E0F7F1FE617F7074B
:1021200089F0819198E03EB9000000C087FF2EB988
:10213000880F000000C000C000C02EB900C09A95F2
:1021400091F7ECCF4FBF8FE594E00197F1F700C016
:1021500000000895AF92BF92CF92DF92EF92FF926C
:102160000F931F93CF93DF937C015B01C42FD22F7A
:10217000FC0182818823F9F040932F020E9487207E
:1021800090932E0280932D0280E28C0F883008F00D
:102190006EC0C77081E001C0880FCA95EAF7DF9171
:1021A000CF911F910F91FF90EF90DF90CF90BF9054
:1021B000AF900C94701580912F02481335C0809118
:1021C0002D0290912E020E9493206C01B701C5014F
:1021D0000E94B91AC816D90638F510E21D0FCD179E
:1021E000B9F080E28C0F883040F4C77081E001C004
:1021F000880FCA95EAF70E947715183058F581E0E4
:102200009D2F977001C0880F9A95EAF70E9470156C
:10221000802F0E945D15183050F5D77081E001C005
:10222000880FDA95EAF70AC080E28C0F8830F8F45C
:10223000C77081E001C0880FCA95EAF7DF91CF919E
:102240001F910F91FF90EF90DF90CF90BF90AF90D4
:102250000C947715802FDF91CF911F910F91FF90F4
:10226000EF90DF90CF90BF90AF900C945D15DF9111
:10227000CF911F910F91FF90EF90DF90CF90BF9083
:10228000AF9008950F939C01CB01233F4CE5340799
:1022900031F188F4283DFCE53F07D9F0293D4CE5B4
:1022A000340779F1273D3C45A9F506E221EE41EEE0
:1022B00067ED7CE52BC0253FFCE53F07E1F0A8F08A
:1022C000263F3C4539F507E225EE46EE66EF7CE514
:1022D0001DC007E225EE45EE68ED7CE517C006E27D
:1022E00021EE40EE63EF7CE511C007E225EE44EEFF
:1022F00064EF7CE50BC006E221EE42EE65EF7CE583
:1023000005C008E221E045EE69ED7CE50E94AA10D7
:1023100080E008C0FC018281882319F010922F020E
:1023200001C081E00F910895CF93DF93EC01FB0191
:102330008281882309F41FC1C230FCE5DF0708F45D
:102340001BC1C6319CE5D90738F09E012A5F3C4588
:102350002930310508F010C10E949D1E90935A0348
:1023600080935903C031ECE5DE0709F4C3C008F0DF
:1023700041C0C8308CE5D80709F49AC0F0F4C430E5
:10238000ECE5DE0709F487C068F4C2308CE5D807B5
:1023900009F477C0C330DC4509F0E3C080915903EC
:1023A000826076C0C630ECE5DE0709F46EC008F046
:1023B0007BC08091590388606BC0CC308CE5D80716
:1023C00009F485C068F4CA30ECE5DE0709F474C08E
:1023D00008F079C00E94001880915903806858C0A5
:1023E000CE308CE5D80709F476C008F07FC0809124
:1023F00059038BC0CB3FECE5DE0709F44FC018F55D
:10240000C3318CE5D80709F47DC078F4C131ECE51F
:10241000DE0709F473C0C231DC4509F0A2C00E9496
:102420000018809159038F7733C0C5318CE5D807E8
:1024300009F472C008F486C0CA3FDC4509F091C0B7
:1024400080915A033EC0CF3FFCE5DF0709F45FC02F
:1024500058F4CD3F9CE5D90709F444C008F43FC0C7
:1024600080915A0382602DC0C130FDE5DF0709F479
:1024700075C008F45DC0C230DD4509F072C080E06F
:102480006EC080915903816003C0809159038061BF
:102490008093590366C08091590311C080915A03FB
:1024A000826080935A035DC0809159038062F0CFAF
:1024B000809159038064ECCF8091590388608460D7
:1024C000E7CF8160EECF809159038E7FE1CF80917D
:1024D00059038D7FDDCF80915903877FD9CF8091BC
:1024E0005A0318C080915A038D7FDBCF8091590326
:1024F0008F7ECECF809159038F7DCACF80915903B3
:102500008F7BC6CF80915903877F8B7FC1CF80910E
:102510005A038D7F8E7FC5CF8091590382FB22277E
:1025200020F991E0922790FB82F990FB83F9B0CFDC
:1025300080915A03982F909591708E7F892B90FBF4
:1025400081F9AFCF0E9400188091590387FB2227A1
:1025500020F991E0922790FB87F99ACF81E00E94C1
:10256000351F8091590390915A030E94AE1E0E941C
:10257000001880E001C081E0DF91CF910895CF93F2
:10258000DF9386319C4541F5EB010E94CF1D982FCA
:102590008A812091170130911801882379F09A7A65
:1025A00081E009F480E080933002911102C069E279
:1025B00001C065E3C9010E94D01F0AC080913002AA
:1025C000811102C069E201C065E3C9010E94DB1FFD
:1025D0000E941D1E80E001C081E0DF91CF9108952F
:1025E00090933602809335020895E0913502F09180
:1025F0003602309721F00190F081E02D099480E0BF
:102600000895E0913502F0913602309799F02091CB
:102610002B01222359F02091590327FF07C0DC0129
:102620002C9111962C93119725E02C930280F38125
:10263000E02D09940895E0913502F091360230972B
:1026400039F022E0DC012C930480F581E02D09941F
:10265000089520913302309134022817390771F020
:102660009093340280933302E0913502F091360268
:10267000309721F00680F781E02D0994089520918C
:102680003102309132022817390771F090933202EB
:1026900080933102E0913502F0913602309721F0BB
:1026A0000084F185E02D0994089585B7806885BF81
:1026B00085B7806885BF089508950C945C130C94C9
:1026C0005D130C945C130C945C130E9455130E94D0
:1026D00061130C945F1381E008950C946B130E94B6
:1026E0007E200E9475060E9438210E94FE0E0E94E4
:1026F000950D0C9463137F928F929F92AF92BF922D
:10270000CF92DF92EF92FF920F931F93CF93DF93BD
:10271000CDB7DEB72A970FB6F894DEBF0FBECDBF98
:102720000E94C7060E946D13811111C08FEF89832B
:102730008A831B820E9487208160782F9D838C83EF
:1027400049815A816B818D810E942F144FC048E3CB
:10275000A42E42E0B42E00E010E0702E802F0E94E4
:1027600062066C01F501819091905F01882699269F
:102770008114910431F40F5F1F4F0530110569F783
:10278000D5CF8091DA0281FD0E946B0680E0EE24B5
:10279000E394F12C94012E213F21232B09F18E8308
:1027A0007F82CE20DF2081E0CD2809F480E0888779
:1027B0000E9487208160782F9A8789874E815F8168
:1027C00068858A850E942F14000F111FF801E85CAC
:1027D000FD4F80819181E826F926F182E08206C0D2
:1027E0008F5FEE0CFF1C8F30A9F6C5CF0E94C80D7D
:1027F0000E946E100E9409240E94F51290913702E7
:102800008917C9F00E94F512809337022A960FB6F5
:10281000F894DEBF0FBECDBFDF91CF911F910F9116
:10282000FF90EF90DF90CF90BF90AF909F908F90F0
:102830007F900C94F2032A960FB6F894DEBF0FBE79
:10284000CDBFDF91CF911F910F91FF90EF90DF905F
:10285000CF90BF90AF909F908F907F900895CF932F
:10286000DF93CDB7DEB72B970FB6F894DEBF0FBE60
:10287000CDBF4F83588769877A878B87DE01119692
:1028800086E0FD0111928A95E9F785E0FE01379611
:1028900001900D928A95E1F749815A816B817C8183
:1028A0008D819E810E94BC1A2B960FB6F894DEBFD4
:1028B0000FBECDBFDF91CF910895FC018081918142
:1028C0000E94901D0895CF93882309F498C0C82FC3
:1028D0008238A1F469E380911701909118010E9458
:1028E000D01F0E941D1E2FEF81EE94E021508040EA
:1028F0009040E1F700C0000069E315C08338E1F4BF
:1029000063E580911701909118010E94D01F0E94E9
:102910001D1E2FEF81EE94E0215080409040E1F7A2
:1029200000C0000063E580911701909118010E949A
:10293000DB1FCF910C941D1E8438A1F467E48091B5
:102940001701909118010E94D01F0E941D1E2FEFA9
:1029500081EE94E0215080409040E1F700C00000FB
:1029600067E4E1CF8CEF8C0F813AD0F46C2F80912B
:102970001701909118010E94501F882349F06C2F75
:1029800080911701909118010E94DB1F0E941D1E6B
:102990006C2F80911701909118010E94D01FC9CF10
:1029A00080E28C0F883048F4C77081E001C0880F46
:1029B000CA95EAF70E94D21DBCCFEBE5EC0FE330DD
:1029C00040F4F0E0E653FE4F808190E0CF910C940C
:1029D0002913E8E5EC0FE73150F4F0E0EE0FFF1FAC
:1029E000E456FE4F80819181CF910C943F13C03FFC
:1029F00030F08C2F0E94FE22CF910C94EB23CF91CC
:102A00000895882309F458C0823859F469E3809105
:102A10001701909118010E94D01F0E941D1E69E3AA
:102A20000CC0833891F463E58091170190911801EF
:102A30000E94D01F0E941D1E63E580911701909196
:102A400018010E94DB1F0C941D1E843859F467E4A2
:102A500080911701909118010E94D01F0E941D1EA5
:102A600067E4EBCF9CEF980F913A10F4682FE5CF15
:102A700090E2980F983050F4877091E001C0990F60
:102A80008A95EAF7892F0E94D81DDDCF9BE5980F24
:102A9000933020F480E090E00C94291398E5980F8F
:102AA000973120F480E090E00C943F13803F20F0B9
:102AB0000E9466230C94EB230895CF93C82F0E94A5
:102AC0006314C93349F42FEF87EE93E0215080401F
:102AD0009040E1F700C000008C2FCF910C940115BD
:102AE000882321F00E94D21D0C941D1E0895882376
:102AF00021F00E94D81D0C941D1E0895CF92DF92E4
:102B0000EF92FF920F931F93CF93DF937C01062FD9
:102B1000C72FFC01158112951F70D281D1110E941F
:102B2000EF1D0E94C81D882399F0DD2389F08C2FAA
:102B3000807F803421F080E2800F883048F082E08E
:102B40000E94671E0E94C81D91E0D82ED92601C0A0
:102B5000D12CCC2EC2948FE0C8228C2D90E0FC01A9
:102B6000E659FF4F0C945E2C8C2F807FCF7088230A
:102B700011F0C295C07FDD2399F0CC2309F48DC1FB
:102B800080E2800F883010F0011104C08C2F0E9469
:102B9000D21D03C08C2F0E94E21D0E941D1E7DC10C
:102BA000802F0E940115CC2309F49CC180E2800F84
:102BB000883010F0011104C08C2F0E94D81D03C072
:102BC0008C2F0E94E81D0E941D1E8CC18C2F807FBF
:102BD000CF70803211F0C295C07F002319F0013010
:102BE000C9F022C0DD2371F0112341F0113031F41E
:102BF0000E94021E8C2B0E940A1E74C10E94021E9B
:102C00008C2B1DC0112319F0113009F46BC10E94E7
:102C1000131E25C0DD2321F0163008F063C10EC05D
:102C2000153008F05FC11BC0DD2361F0112331F0C6
:102C3000F701858180FF31C18F7085838C2F0E94C1
:102C4000701550C1112359F0093309F037C1FFEF56
:102C500027EE83E0F15020408040E1F72DC18C2F1A
:102C60000E9477153FC18C2F86958695837019F049
:102C7000813061F037C1DD2321F0802F9C2F9370CC
:102C800002C080E090E00E94291334C1DD2321F0CE
:102C9000802F9C2F937002C080E090E00E943F1331
:102CA00029C1802FDD2319F00E94FE2202C00E945C
:102CB00066230E94EB231EC18C2F837009F045C050
:102CC000D11114C1402F429546954770440F440FCF
:102CD000602F6F70862F90E0A0E0B0E0042E04C05B
:102CE000880F991FAA1FBB1F0A94D2F704FF10C0B8
:102CF0000FE010E020E030E004C0000F111F221FA1
:102D0000331F4A95D2F7009510952095309503C052
:102D100000E010E09801C695C695C370BC01CD01D6
:102D2000602B712B822B932BC23049F058F4C130A9
:102D300019F00E940D1CDAC00E94FB1BD7C00E9434
:102D40001F1CD4C00E94F91BD1C0DD2319F08C2FA9
:102D5000817001C08695882309F4C8C0402F429530
:102D600046954770440F440F602F6F70862F90E098
:102D7000A0E0B0E0042E04C0880F991FAA1FBB1F5B
:102D80000A94D2F704FF10C00FE010E020E030E01A
:102D900004C0000F111F221F331F4A95D2F7009560
:102DA00010952095309503C000E010E09801C6957D
:102DB000C695C370BC01CD01602B712B822B932B68
:102DC000C23049F058F4C13019F00E94D21C8EC0B4
:102DD0000E94C01C8BC00E94E41C88C00E94331C4F
:102DE00085C0CF70DD2339F08C2F0E94591C802FB5
:102DF0000E9470157BC0802F0E9477158C2F0E9437
:102E00007A1C74C0023F01F128F4003F41F0013FF9
:102E1000A1F03FC0033FF9F0043F39F13AC0DD2390
:102E200041F0153008F05EC08C2F8F710E949F1CFE
:102E300059C0163008F056C0F7CFDD2339F08C2F7B
:102E40008F710E94591C4EC0DD23C9F38C2F8F71E6
:102E50000E947A1C47C0DD2329F08C2F8F710E94BD
:102E6000441C40C00E943F1C3DC0DD2349F0CF718F
:102E70008C2F0E94591C63E08C2F0E94521E32C07E
:102E800081E00E94671E123068F182E00E94671E96
:102E900029C0DD2331F0112391F2802F0E946314A9
:102EA00021C0112399F2093349F49FEFE7EEF3E0D3
:102EB0009150E040F040E1F700C00000802F0E94F8
:102EC000011510C04C2F4F70602FC7010E94540491
:102ED0000E946A1B0FC04C2F4F70602FC7010E94C9
:102EE000570408C088EF8C0D843020F40E94F5123E
:102EF0000E94F203DD20C9F00E94C41D80FD15C0B0
:102F0000F70112820E94BE1D0E94591CC7010E9437
:102F1000B6170E94BE1DDF91CF911F910F91FF90B8
:102F2000EF90DF90CF900C947A1CDF91CF911F919E
:102F30000F91FF90EF90DF90CF9008950F931F9324
:102F4000CF93DF93EC01688179818A810E949B1D78
:102F50008C010E94F61C0E94E71BB801CE010E9462
:102F60007E15DF91CF911F910F910895CF93DF933D
:102F7000EC01988189812B813C81232B31F08F3F9B
:102F800031F481E09F3F19F403C081E001C080E08B
:102F900080FD19C0CE010E940B0481110CC00E945B
:102FA000C81D882381F08A81882369F082E0DF913F
:102FB000CF910C94671ECE010E949E17CE01DF9127
:102FC000CF910C94D603DF91CF9108950E94EF1D0D
:102FD0000E94FF1D0E941D1E0E941C250E94EB23C3
:102FE00080E090E00E94291380E090E00C943F1371
:102FF00080911701909118010E94E61F0C94E6172A
:103000000E94DF1D0C94F817E92FE295EF704E2F08
:1030100050E0FA013297EE30F105B0F4E658FF4F78
:103020000C945E2C803F91F018F4883E68F40EC03A
:10303000843F51F40BC0883E48F0813F29F406C01C
:1030400093FB882780F9089580E0089581E0089532
:103050000E94901D0E9404180895CF93DF9300D022
:1030600000D01F92CDB7DEB70F900F900F900F904A
:103070000F90DF91CF910895CF93DF9300D000D0D0
:1030800000D0CDB7DEB726960FB6F894DEBF0FBEE0
:10309000CDBFDF91CF9108951F93CF93DF93C09160
:1030A000430216E080914402C81799F0D0E01C9FBB
:1030B000F0011D9FF00D1124EB5BFD4F408151810C
:1030C00062817381848195810E943C182196C7702A
:1030D000E9CFDF91CF911F910895409175025091F2
:1030E00076026091770270917802809179029091D6
:1030F0007A020C943C180F931F93CF93DF93809127
:103100007A0282958F7009F05DC0809177028823E2
:1031100009F458C0809143021091440260917502F5
:1031200070917602C0917802D091790291E06F3F60
:1031300009F090E0292F06E0811709F443C0209799
:1031400021F07F3F21F030E003C031E001C0322F99
:1031500090E030FD34C0089FF001099FF00D11246C
:10316000DF01AB5BBD4F11963C911197371327C020
:103170003C91361324C012963C91129731111FC016
:1031800013964D915C9114974C1B5D0B483C510577
:10319000B0F480917A028F70806180937A02E65B4E
:1031A000FD4F80818F708061808385E792E00E946F
:1031B000B617DF91CF911F910F910C944C18019687
:1031C0008770BACFDF91CF911F910F9108959F9291
:1031D000AF92BF92CF92DF92EF92FF920F931F9325
:1031E000CF93DF93CDB7DEB761970FB6F894DEBF0C
:1031F0000FBECDBF8C0185E0F801DE011D96019068
:103200000D928A95E1F7F80140815181E280909119
:103210007502609176022091780230917902211531
:10322000310531F06F3F31F481E09F3F19F403C065
:1032300081E001C080E0F82FF1709F2E80FD46C133
:10324000F801A380B48085E7C82E82E0D82EF090E4
:103250007702F501E21BF30BFF2009F4DFC0809138
:103260007A02E83CF10508F09BC0282F207F09F086
:1032700052C0561313C0491311C0FE2CE1100EC0EA
:103280008F70806180937A020E946D18C6010E943F
:10329000B61780917A02F801858358C1AB2831F0C6
:1032A0005F3F31F481E04F3F19F403C081E001C07A
:1032B00080E080FD03C081E08E2502C080E090E0C8
:1032C000F82FF170FF2E80FF1CC0809143022091E7
:1032D000440236E0821709F417C190E0389FF001EC
:1032E000399FF00D1124EB5BFD4F6181561306C031
:1032F0006081461303C06281E61203C001968770A5
:10330000E9CFFE2CEE2009F421C180917A02816080
:1033100080937A025AC0561306C0491304C0E110C4
:1033200002C0F8019FC04D875E878D859E850E94F3
:103330002818882379F1EE2069F120917A02822FF2
:1033400082958F7090E0029774F080917502909151
:10335000760298878F831986BB86AA862C87CE0132
:1033600007960E94B61786E0F801A5E7B2E0019043
:103370000D928A95E1F70E947B180E946D180DC08E
:10338000561729F14D875E878D859E850E942818E6
:1033900081112CC0C8010E94B617FF24F394D6C037
:1033A000282F207F69F77A2DB98AA88A6E2D8989FE
:1033B0000E942D1885E792E00E94B61786E0F6017C
:1033C00011928A95E9F70E946D18F12CBFC049133C
:1033D000D9CFE110D7CFF8018583C8010E94B61775
:1033E00086E0F60111928A95E9F7B0C0EE2091F2DD
:1033F00020917A02822F82958F7090E002970CF4D0
:10340000B2CF80917502909176029A8389831B8254
:10341000BD82AC822E83CE010196A3CFE83CF1059C
:1034200008F047C0FE2CEE2009F4B4CF561330C08C
:1034300049132EC020917A0220FD21C0822F82954F
:103440008F70482F50E041155105C9F0F8012583D0
:103450004F30510541F08F5F982F9295907F822FCA
:103460008F70892B8583C8010E94B61786E0F8010A
:10347000A5E7B2E001900D928A95E1F742C086E09F
:10348000F801A5E7B2E001900D928A95E1F75EC0E0
:103490004D875E878D859E850E942818811163CF98
:1034A00080917A02816080937A02C8010E94B617E7
:1034B0004DC07A2DB98AA88A6E2D89890E942D184F
:1034C00086E0F60111928A95E9F71BC0EE2009F417
:1034D00061CF4D875E878D859E850E942818F82EC6
:1034E000882309F457CF86E0F801A5E7B2E0019000
:1034F0000D928A95E1F785E792E00E945D140E94A3
:103500007B180E946D1822C04D875E878D859E8531
:103510000E94901D292F22952F70223028F49F7031
:1035200039F0811105C00BC0243028F49F7049F494
:10353000805E883020F0C8010E94B6179F2CF92CBD
:1035400005C0F8019581907F99F7F9CF8F2D61968D
:103550000FB6F894DEBF0FBECDBFDF91CF911F91A4
:103560000F91FF90EF90DF90CF90BF90AF909F9022
:10357000089588EC90E008951F93CF93DF93CDB723
:10358000DEB72C970FB6F894DEBF0FBECDBF4F83CA
:10359000588769877A878B879C87CE0107960E9418
:1035A000E7188823D1F09F8188852A853B85232BC6
:1035B00031F08F3F31F481E09F3F19F403C081E087
:1035C00001C080E080FD47C04F81588569857A85BC
:1035D0008B859C850E943C183EC086E0FE01379694
:1035E000DE01119601900D928A95E1F7FF81E88541
:1035F0006A857B856115710531F0EF3F31F481E01B
:10360000FF3F19F403C081E001C080E080FD23C0CA
:103610002091440230E0C9010196877099274091BA
:10362000430250E084179507F1F1F983EA837D8323
:103630006C8396E0929FD001939FB00D1124AB5BF9
:10364000BD4FFE01319601900D929A95E1F780935E
:1036500044020E944C1816E080914302909144026B
:10366000891771F1189FC00111248B5B9D4F0E9437
:10367000E718882329F1E09143021E9FF0011124ED
:10368000EB5BFD4F40815181628173818481958123
:103690000E943C188091430290E001968770992720
:1036A00080934302D9CF0E940018109244021092D6
:1036B0004302E5E7F2E086E0DF011D928A95E9F733
:1036C0002C960FB6F894DEBF0FBECDBFDF91CF9121
:1036D0001F910895EF92FF920F931F93CF93DF9363
:1036E0008C01892B09F46CC0F12CEE24E394E801E1
:1036F0002196F8018491843740F4843008F051C059
:10370000813081F0823019F15BC0853709F444C003
:10371000A8F19CE7980F903708F052C08F770E946D
:10372000011541C00E5F1F4FFE01849190E2980F7A
:10373000983050F48770FE2D01C0FF0F8A95EAF78C
:103740008F2F0E94F21D14C00E9463142DC00E5FC3
:103750001F4FFE01849190E2980F983060F48770BB
:10376000FE2D01C0FF0F8A95EAF78F2F0E94F81DEA
:103770000E941D1E19C00E94011516C00E5F1F4F2A
:10378000FE01C491CC2381F08FE99FE00197F1F70E
:1037900000C00000C150F6CF0E5F1F4FFE01F49035
:1037A00003C00E9463148E018F2D882309F49FCFDC
:1037B000EFE9FFE03197F1F700C000008150F5CF4D
:1037C000DF91CF911F910F91FF90EF900895089591
:1037D00008950C94E81B0C94E91B0E94EB1B60936A
:1037E000B1027093B2028093B3029093B4020C942E
:1037F000E6170C94ED1B0F931F930091B1021091EB
:10380000B2022091B3023091B402602B712B822B53
:10381000932B1F910F910C94ED1B0F931F9300910D
:10382000B1021091B2022091B3023091B402602330
:103830007123822393231F910F910C94ED1B0F93FF
:103840001F930091B1021091B2022091B302309106
:10385000B40260277127822793271F910F910C9440
:10386000ED1B0C94E81B0E94311C6093AD02709319
:10387000AE028093AF029093B0020C94E61760E022
:1038800070E0CB010C94331C0F931F9341E050E088
:1038900060E070E08A019B0104C0000F111F221F2D
:1038A000331F8A95D2F7C901B8011F910F910C946B
:1038B000331C0F931F9341E050E060E070E004C0C0
:1038C000440F551F661F771F8A95D2F78091AD026E
:1038D0009091AE02A091AF02B091B0028A019B011B
:1038E000082B192B2A2B3B2BC901B8011F910F91D3
:1038F0000C94331C0F931F9341E050E060E070E0A4
:1039000004C0440F551F661F771F8A95D2F7409554
:103910005095609570958091AD029091AE02A09106
:10392000AF02B091B0028A019B01082319232A2318
:103930003B23C901B8011F910F910C94331C0F93C5
:103940001F9341E050E060E070E004C0440F551F59
:10395000661F771F8A95D2F78091AD029091AE02D3
:10396000A091AF02B091B0028A019B0108271927EC
:103970002A273B27C901B8011F910F910C94331CD2
:103980000F931F930091AD021091AE022091AF02F0
:103990003091B002602B712B822B932B1F910F91D2
:1039A0000C94331C0F931F930091AD021091AE0243
:1039B0002091AF023091B0026023712382239323C0
:1039C0001F910F910C94331C0F931F930091AD0224
:1039D0001091AE022091AF023091B00260277127A2
:1039E000822793271F910F910C94331C08952FE089
:1039F000929F800D1124E82FE695E695E695877055
:103A000051E001C0550F8A95EAF785E0E89FF00183
:103A10001124E558FD4F20E030E070E04081CB01FB
:103A2000022E02C0969587950A94E2F781708195DF
:103A300084278523842781932F5F3F4F25303105CD
:103A400069F708952FE0929F800D1124682F6695E5
:103A500066956695982F977085E0689FB001112450
:103A600040E050E080E0FB01E40FF51FE558FD4F1A
:103A7000208130E0092E02C0369527950A94E2F79E
:103A800021703327042E01C0220F0A94EAF7822BFB
:103A90004F5F5F4F4530510531F70895BF92CF9288
:103AA000DF92EF92FF920F931F93CF93DF938C01DE
:103AB000C090AD02D090AE02E090AF02F090B002A4
:103AC0008091B1029091B202A091B302B091B40280
:103AD000C82AD92AEA2AFB2ACFE1D0E0D701C601B9
:103AE0000C2E04C0B695A795979587950A94D2F7A2
:103AF00080FD04C0219790F7B12C07C0BC2EB801FF
:103B00008C2F0E9473040197A9F38B2DDF91CF9125
:103B10001F910F91FF90EF90DF90CF90BF9008958D
:103B2000CF93DF93EC010E944E1DBE010E947304EF
:103B3000DF91CF9108951F93CF93DF93EB01909185
:103B40004202992321F0CB010E94901D13C08823CB
:103B500049F0CB010E944E1D182F682FCE010E9404
:103B6000F71C04C0CB010E94221D182FBE01812F1B
:103B70000E947304DF91CF911F9108958091B50247
:103B800085958595859508958091B50287700895EE
:103B90009091B502977081E009F480E008958091DA
:103BA000D90208959091D902892B8093D902089562
:103BB00080959091D90289238093D902089510921B
:103BC000D90208959091D802892B8093D802089544
:103BD00080959091D80289238093D80208951092FD
:103BE000D80208959091D702892B8093D702089527
:103BF00080959091D70289238093D70208951092DF
:103C0000D70208958091B602089508950C94051E78
:103C10000C94061E9091B602981721F08093B6027C
:103C20000C94081E08958091B602882329F0109202
:103C3000B60280E00C94081E0895E0911701F091FF
:103C400018018091D9028083E0911701F091180149
:103C500090818091D802892B8083E0911701F091A7
:103C6000180190818091D702892B80838091B602C0
:103C7000882381F0E0911701F09118019081892B40
:103C8000808380911701909118010E943A1F811141
:103C90000E94131E80911701909118010C9401133A
:103CA0000C94051E98E0899F90011124262B2093E7
:103CB000B5020E94591C8091B50285958595859520
:103CC0000C94501E1092B50280E00C94501E20916E
:103CD000B502809582238093B502982F977079F46E
:103CE00030E0482F082E000C550B2417350739F00B
:103CF0008595859585950E947A1C0C94621E089581
:103D000080E090E00E940C2D21E08C3E9E4F09F057
:103D100020E0822F089582E090E00C94FE2C682F22
:103D200082E090E00C94122D83E090E00C94FE2C45
:103D3000682F83E090E00C94122DCF9384E090E004
:103D40000E94FE2CC82F81E290E00E94FE2C2C2FB6
:103D500030E0A901582BCA01CF910895CF93C92F04
:103D6000682F84E090E00E94122D6C2F81E290E099
:103D7000CF910C94122D86E090E00C94FE2C682FCD
:103D800086E090E00C94122DAB01BC018FE090E036
:103D90000C94242DAB01BC0183E190E00C94242D04
:103DA00060E070E0CB010C94CA1E60E070E0CB01D3
:103DB0000E94C41E0C94D01E6CEE7EEF80E090E05A
:103DC0000E94302D60E082E090E00E94122D60E0C1
:103DD00083E090E00E94122D1092B1021092B20284
:103DE0001092B3021092B40260E084E090E00E946E
:103DF000122D60E081E290E00E94122D60E085E0EB
:103E000090E00E94122D60E086E090E00E94122D6A
:103E10006FEF87E090E00E94122D40E050E0BA0181
:103E200088E090E00E94242D60E08DE090E00E9408
:103E3000122D40E050E0BA0188E190E00E94242D6C
:103E400060E087E190E00E94122D40E050E0BA016E
:103E50008CE190E00E94242D60E080E290E00E94DE
:103E6000122D0C94D51E0C94DC1E682F8EE090E071
:103E70000C94122DFC01329680912B01882331F095
:103E80008091590387FF02C09EE101C096E080E067
:103E9000915028F021912223D9F38F5FF9CF089513
:103EA000662351F120912B012223E9F0209159033F
:103EB00027FF19C0462F4695469546954E31E0F4AA
:103EC000677021E030E002C0220F331F6A95E2F7ED
:103ED000FC01E40FF11D828190E02823392381E069
:103EE000232B69F409C0FC013296089621916217D0
:103EF00029F0E817F907D1F780E0089581E00895E7
:103F00009C01FC0132969FEF80E04191461789F0B9
:103F10009F3F19F4411101C0982F8F5F8630A9F798
:103F20009F3F39F0F901E90FF11D97FDFA95628382
:103F3000089508959C012A5F3F4FFC01428146137A
:103F400001C01282019682179307B9F70895262FB0
:103F50002695269526952E3168F4FC01E20FF11D79
:103F6000677021E030E001C0220F6A95EAF7828194
:103F7000282B22830895262F2695269526952E31C7
:103F800070F4FC01E20FF11D677021E030E001C028
:103F9000220F6A95EAF720958281282322830895CB
:103FA00020912B01222329F02091590327FD0C9405
:103FB000A71F0C94801F20912B01222329F0209110
:103FC000590327FD0C94BB1F0C949A1F20912B01C1
:103FD000FC013296222331F08091590387FF02C001
:103FE0008EE101C086E0DF011D928A95E9F7089510
:103FF00008950C94F81F0C94F81FCF930E94FB1F98
:104000000E94C7060E94F91FC0E08C2F0E94620622
:10401000892B29F4CF5FC530C1F780E001C081E072
:10402000CF9108950C94F81F0C9412200E94142034
:1040300080915F03843061F11092DB0220E488E11B
:1040400090E00FB6F894A895809360000FBE20937F
:10405000600080E00E940D1080E00E94F2030E9448
:10406000142083B7817F846083BF83B7816083BF5F
:104070007894889583B78E7F83BF0FB6F894A89500
:1040800080916000886180936000109260000FBE94
:1040900008950C94F81F0E9400180E94FE0E0E94C2
:1040A000F5120E94F2030C9449201F920F920FB652
:1040B0000F9211248F939F93AF93BF938091DB0254
:1040C000811113C08091550390915603A09157031D
:1040D000B09158034196A11DB11D80935503909353
:1040E0005603A0935703B0935803BF91AF919F918C
:1040F0008F910F900FBE0F901F90189582E084BD96
:1041000093E095BD9AEF97BD80936E0008952FB709
:10411000F8948091550390915603A0915703B09164
:1041200058032FBF08959C014FB7F8948091550311
:1041300090915603A0915703B09158034FBF821B33
:10414000930B089578941F920F920FB60F9211243B
:104150008F939F93AF93BF93809155039091560394
:10416000A0915703B09158030196A11DB11D8093F2
:10417000550390935603A0935703B0935803BF91F0
:10418000AF919F918F910F900FBE0F901F90189538
:1041900081E08093E00080E28093D8001092C90013
:1041A0008FE19EE40197F1F700C0000087E090EBFB
:1041B000DC018093680390936903A0936A03B09332
:1041C0006B039CE088E10FB6F894A895809360009B
:1041D0000FBE90936000FFCFAF92BF92CF92DF925D
:1041E000EF92FF920F931F93CF93C0E0CC24C39420
:1041F000D12CE82EF12C8C2F0E9462065C0100E08D
:1042000010E0C601002E02C0880F991F0A94E2F741
:104210008A219B21892B31F40F5F1F4F0F3011052D
:1042200081F70AC0602F7C2F80E00E945804E816B6
:10423000F90691F781E004C0CF5FC530E1F680E078
:10424000CF911F910F91FF90EF90DF90CF90BF9093
:10425000AF900895CF93C82F8CE20E94EC20882362
:1042600021F08C2FCF910C94EC2080E0CF91089519
:10427000CF930E94801E811102C00E94331FC5E6A9
:10428000C15049F00E94C7068FE39CE90197F1F7FE
:1042900000C00000F5CF89E20E942A2181112AC1C5
:1042A0008AE20E942A2181110E94331F85E00E9428
:1042B0002A2181110E94C8200E948B1E8093DA025D
:1042C00087E00E942A218823A9F18BE10E942A21FC
:1042D000882351F08091DA0281FB222720F991E0B6
:1042E000922790FB81F90EC08EE00E942A2188233C
:1042F00061F08091DA0282FB222720F991E0922777
:1043000090FB82F98093DA0215C080E10E942A2195
:104310009091DA02882341F093FB222720F981E073
:10432000822780FB93F904C0892F809580FB90F948
:104330009093DA028091DA020E948F1E0E949D1EE5
:1043400090935A038093590380EE0E942A21882378
:1043500041F080915903982F909590FB80F98093BC
:10436000590389E30E942A21882359F08091590337
:1043700081FB222720F991E0922790FB81F980931D
:10438000590382EE0E942A21882359F08091590313
:1043900082FB222720F991E0922790FB82F98093FB
:1043A000590386EE0E942A21882359F080915903EF
:1043B00083FB222720F991E0922790FB83F98093D9
:1043C000590383EE0E942A21882359F080915903D2
:1043D00084FB222720F991E0922790FB84F98093B7
:1043E000590385E30E942A21882359F080915903BB
:1043F00085FB222720F991E0922790FB85F9809395
:10440000590381E30E942A21882359F0809159039E
:1044100086FB222720F991E0922790FB86F9809372
:10442000590381E10E942A21882359F08091590380
:1044300087FB222720F991E0922790FB87F9809350
:1044400059038091590390915A030E94AE1E87E24E
:104450000E942A21C82F8EE10E942A218111C26068
:104460008FE10E942A218111C46080E20E942A21EA
:104470008111C86081E20E942A218111C06182E21B
:104480000E942A218111C06283E20E942A218111A7
:10449000C06484E20E942A21882311F0C06802C00F
:1044A000CC2329F08C2F0E94981E6C2F03C00E94F1
:1044B000941E682F70E080E090E00E94F91B6091EC
:1044C000AD027091AE028091AF029091B0020E9455
:1044D000311C8FE00E942A21882319F081E00E947C
:1044E000351F85E10E942A21882321F080E0CF91A9
:1044F0000C94351FCF9108958091E20280FF0BC08C
:1045000060911E0185E0689FB00111247595679543
:10451000759567952BC081FF09C060911E0185E0EC
:10452000689FB00111247595679520C082FF07C070
:1045300060911E0185E0689FB001112417C0909121
:10454000E1029923D1F060911D01961788F720911F
:104550001E0185E0289F90011124929FA001939F46
:10456000500D112470E0CA010E94282C603871059A
:1045700040F46115710519F406C065E070E0862FFE
:1045800008958FE7089581E008958091E20280FF09
:1045900008C060911A0170E07595679575956795EB
:1045A00021C081FF06C060911A0170E07595679582
:1045B00019C082FF04C060911A0170E010C0909190
:1045C000E002992399F0609119019617A0F7809164
:1045D0001A01899FC001112470E00E94282C6038C4
:1045E000710540F46115710519F406C061E070E0D1
:1045F000862F08958FE7089581E00895803F21F484
:104600000E947C22819504C0813F29F40E947C2273
:104610008093E6020895823F21F40E947C228195D6
:1046200004C0833F29F40E947C228093E502089510
:10463000893F19F40E94C52205C08A3F31F40E94C7
:10464000C52281958093E70208958B3F21F40E9453
:10465000C522819504C08C3F29F40E94C522809315
:10466000E8020895843F21F48091E402816017C03C
:10467000853F21F48091E402826011C0863F21F4DD
:104680008091E40284600BC0873F21F48091E402B2
:10469000886005C0883F31F48091E4028061809396
:1046A000E40208958D3F21F48091E20281600BC005
:1046B0008E3F21F48091E202826005C08F3F29F491
:1046C0008091E20284608093E2020895803F39F491
:1046D0008091E60287FF6AC01092E60267C0813FC0
:1046E00029F48091E6021816BCF360C09091E502AF
:1046F000823F29F497FF5AC01092E50257C0833FCA
:1047000019F41916CCF352C09091E702893F31F4A5
:1047100019160CF04BC01092E70248C08A3F19F4FA
:1047200097FF44C0F8CF8B3F39F48091E80287FFB0
:104730003DC01092E8023AC08C3F29F48091E80213
:104740001816BCF333C0843F21F48091E4028E7FBD
:1047500017C0853F21F48091E4028D7F11C0863F10
:1047600021F48091E4028B7F0BC0873F21F480917C
:10477000E402877F05C0883F31F48091E4028F7E98
:104780008093E40213C08D3F21F48091E2028E7F7A
:104790000BC08E3F21F48091E2028D7F05C08F3FD8
:1047A00029F48091E2028B7F8093E2028091E502FE
:1047B000811106C08091E602811102C01092E102CF
:1047C0008091E702811106C08091E802811102C048
:1047D0001092E00208950E9487202091E5022111A5
:1047E00004C02091E602222321F09093DF028093FF
:1047F000DE022091E702211104C02091E802222369
:1048000021F09093DD028093DC0283EE92E00C9421
:104810001B13EF92FF920F931F93CF93DF9300D060
:1048200000D000D0CDB7DEB786E0E3EEF2E0DE01E7
:10483000119601900D928A95E1F7E090E502F090D3
:10484000E6020091E7021091E8021092E502109250
:10485000E6021092E7021092E802E11003C0FF2086
:1048600009F45DC08091DE029091DF020E949320E6
:10487000AC019091E102992339F020911F0130E0C1
:104880002417350758F04BC0209120018AE0289F5B
:10489000900111242417350718F041C09F3F19F0EB
:1048A0009F5F9093E102EE2061F00E947C221E1433
:1048B00014F09FEF01C091E0989F902D11249093E8
:1048C000E502FF2061F00E947C221F1414F09FEF8C
:1048D00001C091E0989F902D11249093E6023091B1
:1048E000E5023323E1F02091E6022223C1F045EBFB
:1048F0003403C0011124992319F09093E50203C0F9
:1049000081E08093E50235EB2303C0011124992354
:1049100019F09093E60203C081E08093E602011152
:1049200003C0112309F45DC08091DC029091DD0287
:104930000E949320AC019091E002992339F02091DC
:104940001B0130E02417350758F04BC020911C01A3
:104950008AE0289F900111242417350718F041C0E0
:104960009F3F19F09F5F9093E002002361F00E9447
:10497000C522101614F09FEF01C091E0989F902D72
:1049800011249093E702112361F00E94C5221116B1
:1049900014F09FEF01C091E0989F902D1124909307
:1049A000E8023091E7023323E1F02091E80222236C
:1049B000C1F045EB3403C0011124992319F0909301
:1049C000E70203C081E08093E70235EB2303C001D7
:1049D0001124992319F09093E80203C081E0809399
:1049E000E8028091E50281110BC08091E6028111FD
:1049F00007C08091E702811103C08091E802811114
:104A00000E94EB23EB82FC820D831E8386E0FE0175
:104A10003196A3EEB2E001900D928A95E1F72696C9
:104A20000FB6F894DEBF0FBECDBFDF91CF911F91BF
:104A30000F91FF90EF900895E3EEF2E086E0DF0142
:104A40001D928A95E9F71092E1021092E00210920D
:104A5000E2020895809109030895CF93DF9300D077
:104A60001F92CDB7DEB790915F03943019F589831B
:104A70007B836A8382E08093E9008FEF9091E80066
:104A8000815095FD06C095ED9A95F1F700008111D2
:104A9000F5CF8091E80085FF0DC040E050E063E075
:104AA00070E0CE0101960E945A278091E8008E772F
:104AB0008093E8000F900F900F90DF91CF910895B1
:104AC000BC0184E00C942D25BC0183E00C942D25C1
:104AD00022E02093E9002FEF3091E800215035FDCE
:104AE00006C035ED3A95F1F700002111F5CF209180
:104AF000E80025FF0BC040E050E066E070E00E9457
:104B00005A278091E8008E778093E8000895CF932C
:104B1000DF9320912B01222339F02091590327FFA5
:104B200003C060E222E002C068E021E02093E900D7
:104B30002FEF3091E800215035FD06C035ED3A9554
:104B4000F1F700002111F5CF2091E80025FF1DC0ED
:104B5000EC0180912B01811105C040E050E068E03C
:104B600070E003C070E040E050E0CE010E945A27A0
:104B70008091E8008E778093E80080E2FE01A9EE44
:104B8000B2E001900D928A95E1F7DF91CF910895FF
:104B900080915E03811109C00E94EB280E94482980
:104BA0008091E20084608093E200089510925E0399
:104BB0000895089508950C944B2042E061EC81E043
:104BC0000E94642842E261EC82E00C9464288091A7
:104BD0006103833009F460C030F4813071F08230B9
:104BE00009F499C008958A3009F485C08B3009F41E
:104BF0006BC0893009F0A7C020C080916003813A62
:104C000009F0A1C08091E800877F8093E80080913F
:104C1000640390916503892B21F460E289EE92E0B0
:104C200003C060E080E090E070E00E94A5278091E2
:104C3000E8008B778093E8000895809160038132CB
:104C400009F081C08091640390916503029708F098
:104C50007AC08091E800877F8093E8008091E80027
:104C600082FD05C080915F038111F8CF6CC0209157
:104C7000F3008091F20090E0922B029729F480914A
:104C8000F1008B7F813021F48091F1008093090342
:104C90008091E8008B7753C080916003813A09F0DE
:104CA00052C08091640390916503892B09F04BC039
:104CB0008091E800877F8093E8008091E80080FF82
:104CC000FCCF80912B0136C0809160038132D9F5F1
:104CD0008091640390916503892BA9F58091E80088
:104CE000877F8093E8000E949928809162038093D7
:104CF0002B010C94001880916003813221F5809182
:104D0000E800877F8093E8000E94992880916303E0
:104D100080930A03089580916003813AA1F4809101
:104D2000E800877F8093E8008091E80080FFFCCF57
:104D300080910A038093F1008091E8008E77809340
:104D4000E8000C949928089584B7877F84BF0FB634
:104D5000F894A8958091600088618093600010921B
:104D600060000FBE90E080E80FB6F8948093610079
:104D7000909361000FBE0E9465130E94EB280E9471
:104D800048298091E20084608093E20078940E9438
:104D9000DD2B0E946F1381E291E00E94F01280915E
:104DA0005F03853069F40E94162080915D0388239B
:104DB000B1F30E94FD1F882391F30E944427EFCF97
:104DC0000E947B13ECCF0C94E526292F3327233048
:104DD0003105C9F060F42130310581F02230310510
:104DE00009F04AC08BE390E026E235E049C0213269
:104DF000310511F12232310579F13EC082E190E0B6
:104E000021E635E03DC099278130910561F040F001
:104E10008230910559F0039779F5E0E0F5E008C09C
:104E2000E2E2F5E005C0E6E1F5E002C0E6E0F5E02B
:104E3000849190E09F0124C06115710541F06130BB
:104E40007105D1F489E090E021E535E019C089E0F1
:104E500090E028E335E014C06115710541F0613040
:104E6000710551F48CEB90E023E735E009C080E454
:104E700090E02FE236E004C080E090E020E030E0F7
:104E8000FA0131832083089580E189BD82E189BDE3
:104E900009B400FEFDCF8091D8008F7D8093D800AB
:104EA0008091E00082608093E0008091E00081FDCD
:104EB000FCCF0895CF92DF92EF92FF920F931F9352
:104EC000CF93DF93EC018B017A010E94B828811106
:104ED00033C0E114F10439F0F70180819181081B9E
:104EE000190BC80FD91FC12CD12C0115110519F1AF
:104EF0008091E80085FD16C08091E8008E77809350
:104F0000E800E114F10449F0F70180819181C80EB5
:104F1000D91ED182C08285E00FC00E94B8288823A4
:104F200021F30AC089918093F10001501109FFEF2C
:104F3000CF1ADF0ADACF80E0DF91CF911F910F9176
:104F4000FF90EF90DF90CF9008952091660330910D
:104F500067032617370748F06115710539F420916A
:104F6000E8002E772093E80001C0B901FC0120E0A1
:104F70006115710579F180915F038823F1F1853026
:104F8000F1F18091E80083FD3CC08091E80082FD52
:104F90002EC08091E80080FFEBCF2091F30080913C
:104FA000F20090E0922B6115710551F08830910567
:104FB00038F421912093F100615071090196F3CFEB
:104FC00021E0089709F020E08091E8008E77809337
:104FD000E800CECF2111CFCF0AC080915F03882394
:104FE00061F0853061F08091E80083FD0AC0809116
:104FF000E80082FFF2CF80E0089582E0089583E028
:10500000089581E008952091660330916703261783
:10501000370748F06115710539F42091E8002E77C3
:105020002093E80001C0B901FC0120E06115710581
:1050300091F180915F03882309F440C0853009F421
:105040003FC08091E80083FD3DC08091E80082FD73
:105050002FC08091E80080FFE9CF2091F30080917C
:10506000F20090E0922B6115710559F0883091059E
:1050700040F424912093F10031966150710901961A
:10508000F2CF21E0089709F020E08091E8008E77C8
:105090008093E800CBCF2111CCCF0AC080915F0371
:1050A000882361F0853061F08091E80083FD0AC0BB
:1050B0008091E80082FFF2CF80E0089582E00895B9
:1050C00083E0089581E00895982F973068F59093D4
:1050D000E900981739F07091EC002091ED005091A3
:1050E000F00003C0242F762F50E021FD02C09F5F07
:1050F000ECCF3091EB003E7F3093EB003091ED0030
:105100003D7F3093ED003091EB0031603093EB0048
:105110007093EC002093ED005093F0002091EE008E
:1051200027FDE5CF80E008958F708093E90081E04E
:1051300008958091600387FF11C08091E80082FD8F
:1051400005C080915F038111F8CF11C08091E80004
:105150008B770BC080915F03882349F08091E80032
:1051600080FFF8CF8091E8008E778093E800089563
:105170002091E4003091E50095E64091EC00842F09
:10518000817040FF23C08091E80080FD1DC08091A8
:105190005F03882399F0853099F08091EB0085FDBD
:1051A00011C04091E4005091E5002417350729F320
:1051B000915011F09A01E1CF84E0089582E00895C2
:1051C00083E0089581E0089580E008954091E8002B
:1051D00042FFDDCF08950E9459290E946129E0EE27
:1051E000F0E0808181608083E8EDF0E080818F775E
:1051F000808319BCA7EDB0E08C918E7F8C93808169
:105200008F7E808310925E0308950F931F93CF9338
:10521000DF930E9459290E946129C8EDD0E088815E
:105220008F77888388818068888388818F7D888351
:1052300019BC10925F0310925B0310925D031092F1
:105240005C0300EE10E0F80180818B7F8083888111
:105250008160888342E060E080E00E946428E1EEA3
:10526000F0E080818E7F8083E2EEF0E080818160DB
:105270008083808188608083F80180818E7F808335
:10528000888180618883DF91CF911F910F9108956C
:10529000E8EDF0E080818F7E8083E7EDF0E08081B3
:1052A0008160808384E082BF81E080935E030C9400
:1052B0000529E8EDF0E080818E7F80831092E20086
:1052C00008951092DA001092E10008951F920F9253
:1052D0000FB60F9211242F933F934F935F936F93C9
:1052E0007F938F939F93AF93BF93EF93FF9380919F
:1052F000E10082FF0BC08091E20082FF07C0809135
:10530000E1008B7F8093E1000E94DC2B8091DA002A
:1053100080FF1FC08091D80080FF1BC08091DA0001
:105320008E7F8093DA008091D90080FF0DC080E1EC
:1053300089BD82E189BD09B400FEFDCF81E0809383
:105340005F030E94C82505C019BC10925F030E942C
:10535000D6258091E10080FF19C08091E20080FF96
:1053600015C08091E2008E7F8093E2008091E20080
:1053700080618093E2008091D80080628093D800A1
:1053800019BC85E080935F030E94DA258091E100DB
:1053900084FF30C08091E20084FF2CC080E189BD91
:1053A00082E189BD09B400FEFDCF8091D8008F7DD8
:1053B0008093D8008091E1008F7E8093E1008091FE
:1053C000E2008F7E8093E2008091E2008160809312
:1053D000E20080915B03882311F084E007C0809194
:1053E000E30087FD02C081E001C083E080935F039A
:1053F0000E94DB258091E10083FF29C08091E200BB
:1054000083FF25C08091E100877F8093E10082E0E7
:1054100080935F0310925B038091E1008E7F809305
:10542000E1008091E2008E7F8093E2008091E200B3
:1054300080618093E20042E060E080E00E946428A6
:105440008091F00088608093F0000E94D925FF9140
:10545000EF91BF91AF919F918F917F916F915F91EC
:105460004F913F912F910F900FBE0F901F90189565
:105470001F920F920FB60F9211242F933F934F93C9
:105480005F936F937F938F939F93AF93BF93CF93CC
:10549000DF93EF93FF93C091E900CF708091EC0010
:1054A000D82FD17080FDD0E81092E9008091F000F3
:1054B000877F8093F00078940E947C2A1092E90004
:1054C0008091F00088608093F000CD2BCF70C09366
:1054D000E900FF91EF91DF91CF91BF91AF919F9143
:1054E0008F917F916F915F914F913F912F910F908D
:1054F0000FBE0F901F9018951F93CF93DF93CDB7DA
:10550000DEB7AA970FB6F894DEBF0FBECDBFE0E6B8
:10551000F3E08091F100819323E0E836F207C9F7C8
:105520000E94E7258091E80083FF2EC180916003EF
:1055300090916103492F50E04A30510508F024C191
:10554000FA01E857FF4F0C945E2C803821F0823826
:1055500009F01AC108C080915C0390915D03992302
:1055600089F082600FC0809164038F70873008F0EB
:105570000BC18093E9008091EB0085FB882780F9BF
:105580001092E9009091E800977F9093E800809353
:10559000F1001092F100D1C0282F2D7F09F0F4C046
:1055A000882319F0823061F0EFC08091620381306E
:1055B00009F0EAC0933009F080E080935D032EC0CB
:1055C0008091620381112AC0809164038F702FEF54
:1055D000280F263008F0D8C08093E9002091EB0016
:1055E00020FF1CC0933021F48091EB00806214C036
:1055F0009091EB0090619093EB0021E030E0A901E5
:1056000002C0440F551F8A95E2F74093EA001092BA
:10561000EA008091EB0088608093EB001092E90033
:105620008091E800877F8093E8000E949928ACC0B1
:105630008111AAC0109162031F778091E3008078E6
:10564000812B8093E3008091E800877F8093E800BE
:105650000E9499288091E80080FFFCCF8091E300B0
:1056600080688093E300111102C082E001C083E0F2
:1056700080935F0389C08058823008F085C0809194
:105680006203909163038C3D53E0950779F583E0C5
:105690008A838AE289834FB7F894DE01139620E06B
:1056A0003EE051E2E32FF0E050935700E49120FFF9
:1056B00003C0E295EF703F5FEF708E2F90E0EA300D
:1056C00010F0C79601C0C0968D939D932F5F243133
:1056D00049F74FBF8091E800877F8093E8006AE236
:1056E00070E0CE0101960E94A52716C06091640368
:1056F00070916503AE014F5F5F4F0E94E326BC01CE
:10570000892B09F441C09091E800977F9093E800BD
:1057100089819A810E9403288091E8008B77809389
:10572000E80032C0803881F58091E800877F80935F
:10573000E80080915B038093F1008091E8008E7710
:1057400072CF811121C080916203909163039927E8
:105750000297D4F48091E800877F8093E8008091DD
:10576000620380935B030E94992880915B038111FF
:1057700006C08091E30087FD02C081E001C084E0A3
:1057800080935F030E94DD258091E80083FF0AC0BB
:105790008091E800877F8093E8008091EB00806231
:1057A0008093EB00AA960FB6F894DEBF0FBECDBF74
:1057B000DF91CF911F9108950895CF9380915F035A
:1057C0008823A1F0C091E900CF709091EC00892F5F
:1057D000817090FD80E8C82B1092E9008091E8006C
:1057E00083FD0E947C2ACF70C093E900CF91089579
:1057F000DB018F939F930E94822CBF91AF91A29F58
:10580000800D911DA39F900DB29F900D11240895BE
:10581000991B79E004C0991F961708F0961B881F02
:105820007A95C9F780950895AA1BBB1B51E107C063
:10583000AA1FBB1FA617B70710F0A61BB70B881F20
:10584000991F5A95A9F780959095BC01CD010895AF
:1058500097FB072E16F4009407D077FD09D00E941D
:10586000142C07FC05D03EF4909581959F4F089528
:10587000709561957F4F0895A1E21A2EAA1BBB1B5C
:10588000FD010DC0AA1FBB1FEE1FFF1FA217B3070C
:10589000E407F50720F0A21BB30BE40BF50B661F22
:1058A000771F881F991F1A9469F7609570958095E6
:1058B00090959B01AC01BD01CF010895EE0FFF1F34
:1058C0000590F491E02D09940E946C2C332312F47E
:1058D0008A1B9B0B0C947D2CA29FB001B39FC0012F
:1058E000A39F700D811D1124911DB29F700D811D0C
:1058F0001124911D08950E946C2CB7FF0895821BFE
:10590000930B08950E946C2CA59F900DB49F900D51
:10591000A49F800D911D11240895B7FF0C94822C33
:105920000E94822C821B930B08958F929F92AF92BC
:10593000BF92CF92DF92EF92FF92CF93DF93EC0171
:10594000688179818A819B81611571058105910545
:1059500021F464E279ED8BE597E02DE133EF41E04E
:1059600050E00E94462D49015A019B01AC01A7EA73
:10597000B1E40E94822C6B017C01ACEEB4EFA50176
:1059800094010E94902CDC01CB018C0D9D1DAE1D5D
:10599000BF1DB7FF03C00197A109B0488883998351
:1059A000AA83BB839F77DF91CF91FF90EF90DF9029
:1059B000CF90BF90AF909F908F9008950E94952CAC
:1059C000089580E091E00E94952C0895A0E0B0E059
:1059D0008093000190930101A0930201B093030111
:1059E0000895FC014150504030F001900616D1F767
:1059F0003197CF010895882799270895F999FECF07
:105A000092BD81BDF89A992780B50895A6E1B0E0CE
:105A100044E050E00C94382DA8E1B0E042E050E0C2
:105A20000C94382D262FF999FECF92BD81BDF89A9E
:105A3000019700B4021639F01FBA20BD0FB6F894D2
:105A4000FA9AF99A0FBE08950396272F0E94132DF4
:105A50000E94122D252F0E94132D242F0C94132DFC
:105A60000196272F0E94132D0C94122DDC01CB01DF
:105A7000FC01F999FECF06C0F2BDE1BDF89A31965E
:105A800000B40D9241505040B8F70895052E97FB91
:105A90001EF400940E945D2D57FD07D00E943C2CFF
:105AA00007FC03D04EF40C945D2D50954095309535
:105AB00021953F4F4F4F5F4F08959095809570957A
:0E5AC00061957F4F8F4F9F4F0895F894FFCF51
:105ACE0001000000010102001000101001191A1B44
